:020000040800F2
:100000000000082071490008C1490008C1490008E2
:10001000C1490008C1490008C149000800000000AA
:10002000000000000000000000000000C1490008BE
:10003000C149000800000000C14900081947000834
:10004000C1490008C1490008C1490008C149000868
:10005000C1490008C1490008C1490008C149000858
:10006000C1490008C1490008C1490008C149000848
:10007000C1490008C1490008C1490008C149000838
:10008000C1490008C1490008C1490008C149000828
:10009000C1490008C1490008C1490008C149000818
:1000A000C1490008C1490008C1490008C149000808
:1000B00021470008C1490008C1490008C14900089A
:1000C000C1490008C1490008C1490008C1490008E8
:1000D000C1490008C1490008C1490008C1490008D8
:1000E000C1490008C1490008C1490008C1490008C8
:1000F000C1490008C1490008C1490008C1490008B8
:10010000C1490008C1490008C1490008C1490008A7
:10011000C1490008C1490008C1490008C149000897
:10012000C1490008C1490008C1490008C149000887
:10013000C1490008C1490008C1490008C149000877
:10014000C1490008C1490008C1490008C149000867
:10015000C1490008C1490008C1490008C149000857
:10016000C1490008C1490008C1490008C149000847
:10017000C1490008C1490008C14900080000000049
:10018000C1490008C1490008C1490008C149000827
:10019000C1490008C1490008C1490008C149000817
:1001A000C1490008C1490008C1490008C149000807
:1001B000C1490008C1490008C1490008C1490008F7
:1001C000C1490008C149000800000000C1490008F9
:1001D000C1490008C1490008C1490008C1490008D7
:1001E000C1490008C1490008C1490008C1490008C7
:0801F000C1490008C1490008E3
:1002000010B5054C237833B9044B13B10448AFF350
:1002100000800123237010BDC009002000000000F1
:100220003CA5000808B5034B1BB103490348AFF3D5
:10023000008008BD00000000C40900203CA50008A3
:1002400090F800F06DE9024520F007016FF0000C16
:1002500010F0070491F820F040F049804FF00004BE
:100260006FF00700D1E9002391F840F000F1080099
:1002700082FA4CF2A4FA8CF283FA4CF3A2FA8CF3D1
:100280004BBBD1E9022382FA4CF200F10800A4FA38
:100290008CF283FA4CF3A2FA8CF3E3B9D1E904238C
:1002A00082FA4CF200F10800A4FA8CF283FA4CF3C3
:1002B000A2FA8CF37BB9D1E9062301F1200182FA7D
:1002C0004CF200F10800A4FA8CF283FA4CF3A2FA83
:1002D0008CF3002BC6D0002A04BF04301A4612BA91
:1002E000B2FA82F2FDE8024500EBD2007047D1E994
:1002F000002304F00305C4F100004FEAC50514F023
:10030000040F91F840F00CFA05F562EA05021CBFF3
:1003100063EA050362464FF00004A9E7000000000D
:1003200001F0FF01102A2BDB10F0070F08D010F8A6
:10033000013B013A8B422DD010F0070F42B3F6D1AA
:10034000F0B441EA012141EA014122F007047FF0C3
:1003500000070023F0E80256083C85EA010586EA1A
:10036000010685FA47F5A3FA87F586FA47F6A5FA56
:1003700087F68EB9EED1F0BC01F0FF0102F0070262
:1003800032B110F8013B013A83EA010313B1F8D10D
:100390000020704701387047002D06BF35460338EE
:1003A000073815F0010F07D1013015F4807F02BF27
:1003B000013015F4C03F0130F0BC0138704700BF78
:1003C000844641EA000313F003036DD1403A41D360
:1003D00051F8043B40F8043B51F8043B40F8043B1F
:1003E00051F8043B40F8043B51F8043B40F8043B0F
:1003F00051F8043B40F8043B51F8043B40F8043BFF
:1004000051F8043B40F8043B51F8043B40F8043BEE
:1004100051F8043B40F8043B51F8043B40F8043BDE
:1004200051F8043B40F8043B51F8043B40F8043BCE
:1004300051F8043B40F8043B51F8043B40F8043BBE
:1004400051F8043B40F8043B51F8043B40F8043BAE
:10045000403ABDD2303211D351F8043B40F8043B4E
:1004600051F8043B40F8043B51F8043B40F8043B8E
:1004700051F8043B40F8043B103AEDD20C3205D35E
:1004800051F8043B40F8043B043AF9D2043208D056
:10049000D2071CBF11F8013B00F8013B01D30B88C8
:1004A00003806046704700BF082A13D38B078DD0A6
:1004B00010F003038AD0C3F10403D21ADB071CBF78
:1004C00011F8013B00F8013B80D331F8023B20F8E2
:1004D000023B7BE7043AD9D3013A11F8013B00F81B
:1004E000013BF9D20B7803704B7843708B788370A3
:1004F0006046704753B94AB9002908BF00281CBF9D
:100500004FF0FF314FF0FF3000F06EB9ADF1080C45
:100510006DE904CE00F006F8DDF804E0DDE9022321
:1005200004B070472DE9F047089D04468C46002B27
:1005300040F083808A42174647D9B2FA82F242B12C
:10054000C2F1200024FA00F09140974040EA010CEB
:1005500094404FEA1748230CBCFBF8F61FFA87FEBD
:1005600008FB16C143EA014306FB0EF1994209D983
:10057000FB1806F1FF3080F01981994240F2168194
:10058000023E3B445B1AA4B2B3FBF8F008FB103305
:1005900044EA034400FB0EFEA64509D93C1900F1CC
:1005A000FF3380F00581A64540F2028102383C44C9
:1005B00040EA0640A4EB0E0400261DB1D4400023FF
:1005C000C5E900433146BDE8F08702B9FFDEB2FA63
:1005D00082F2002A50D1CB1B4FEA174E1FFA87F840
:1005E0000126B3FBFEFC210C0EFB1C3341EA034148
:1005F00008FB0CF38B4207D979180CF1FF3002D2BB
:100600008B4200F2E9808446C91AA3B2B1FBFEF026
:100610000EFB101143EA014408FB00F8A04507D97E
:100620003C1900F1FF3302D2A04500F2D9801846F0
:10063000A4EB080440EA0C40BFE78B4209D9002D27
:1006400000F0B1800026C5E9000130463146BDE822
:10065000F087B3FA83F6002E4AD18B4202D382424E
:1006600000F2B880841A61EB030101208C46002D52
:10067000A8D0C5E9004CA5E7C2F1200320FA03F693
:10068000974001FA02F04FEA174ED9403043030C6D
:10069000B1FBFEF61FFA87F80EFB161143EA014381
:1006A00006FB08F1994204FA02F409D9FB1806F195
:1006B000FF3C80F08D80994240F28A80023E3B44AC
:1006C0005B1A81B2B3FBFEF00EFB103341EA03412B
:1006D00000FB08F38B4207D9791800F1FF3C73D275
:1006E0008B4271D902383944CB1A40EA064678E782
:1006F000C6F1200C03FA06F422FA0CF31C4320FA8C
:100700000CF701FA06F34FEA144E21FA0CF11F43DD
:100710003B0CB1FBFEF91FFA84F80EFB191143EAFA
:10072000014109FB08FA8A4502FA06F200FA06F3CB
:1007300008D9611809F1FF3048D28A4546D9A9F194
:1007400002092144A1EB0A01BFB2B1FBFEF00EFB8E
:10075000101147EA014700FB08F8B84507D9E71927
:1007600000F1FF312ED2B8452CD90238274440EA97
:100770000940A7EB0807A0FB02894F45C64649463A
:100780001AD317D05DB1B3EB0E0267EB010707FA7E
:100790000CFCF2404CEA0202F740C5E900270026B3
:1007A0003146BDE8F0872E4628460BE70646E9E6C7
:1007B0001846FDE64345E5D2B8EB020E69EB0401AD
:1007C0000138DFE70846D2E760468DE78146B9E7A2
:1007D000664675E730464AE7ACF1020C394413E748
:1007E00002383C4424E700BF704700BF10B5044600
:1007F0000E4B18784FF47A73B3FBF0F30C4A106881
:10080000B0FBF3F000F0A6F868B90F2C01D9012075
:100810000AE0002221464FF0FF3000F05BF8054B64
:100820001C60002000E0012010BD00BF000000207F
:100830000C0000200400002008B5094B1A6842F49F
:1008400000721A601A6842F480721A60032000F085
:100850002FF80020FFF7CAFF03F046FF002008BD75
:10086000003C0240034A1168034B1B780B441360A1
:10087000704700BF180A002000000020014B1868D4
:10088000704700BF180A002038B50446FFF7F6FF8E
:100890000546B4F1FF3F02D0044B1B781C44FFF720
:1008A000EDFF401BA042FAD338BD00BF000000207E
:1008B0000649CB6823F4E0631B041B0C000200F420
:1008C000E0600343024A1A43CA60704700ED00E04B
:1008D0000000FA0530B4154BDB68C3F30223C3F103
:1008E0000704042C28BF04241D1D062D14D9033B26
:1008F0004FF0FF3505FA04F421EA0401994005FAA6
:1009000003F322EA03031943002807DB0901C9B2F4
:10091000074B195430BC70470023E9E700F00F0083
:100920000901C9B2034B1954F4E700BF00ED00E020
:1009300000E400E014ED00E0002807DB00F01F02F7
:10094000400901239340024A42F82030704700BF1B
:1009500000E100E00138B0F1807F0AD2064B586018
:10096000064AF02182F823100020986007221A60BE
:1009700070470120704700BF10E000E000ED00E08C
:1009800000230F2B00F2E380F0B482B039E009229B
:1009900000E00022B2403A4302346D4E46F8242073
:1009A0006C4A1468EA4324EA05064F6817F4803F4E
:1009B00001D045EA0406674C2660646802EA040632
:1009C0004F6817F4003F01D045EA0406614C6660A9
:1009D000A46802EA04064F6817F4801F01D045EAB4
:1009E00004065C4CA660E46822404E6816F4001FC2
:1009F00001D045EA0402574CE26001330F2B00F2AC
:100A0000A38001229A400C6804EA020532EA040439
:100A1000F3D14C68122C18BF022C10D1DE08083616
:100A200050F826C003F00704A7000F24BC402CEAAE
:100A3000040C0C69BC4044EA0C0440F82640D0F891
:100A400000C05E000324B440E7432CEA040C4C6869
:100A500004F00304B44044EA0C0404604C6804F15C
:100A6000FF3C112C18BFBCF1010F01D9122C10D181
:100A7000846807EA040CCC68B44044EA0C0484603F
:100A8000446824EA02024C68C4F300149C401443F6
:100A90004460C26817408A68B2403A43C2604A68FC
:100AA00012F0805FA9D02C4A546C44F48044546402
:100AB000526C02F480420192019A9C08A61C244ABE
:100AC00052F8267003F0030296000F22B24027EA84
:100AD0000207224A90423FF45CAF02F580629042E6
:100AE00022D002F58062904220D002F580629042CE
:100AF0001ED002F5806290421CD002F580629042C6
:100B00001AD002F58062904218D002F580629042BD
:100B100016D002F58062904214D002F580629042B5
:100B20003FF435AF0A2235E7012233E7022231E7ED
:100B300003222FE704222DE705222BE7062229E7CF
:100B4000072227E7082225E702B0F0BC704770476C
:100B500000380140003C01400038024000000240E3
:100B60000369194201D001207047002070470AB183
:100B7000816170470904816170470000002857D0E7
:100B800010B5044690F84130002B41D0242384F85E
:100B900041302268136823F0010313606368226800
:100BA00023F0706313612268936823F40043936019
:100BB000E368012B31D0A368226843F404439360B7
:100BC000E368022B2FD0226851681A4B0B43536005
:100BD0002268D36823F40043D36023696269134316
:100BE000A169226843EA0123D360E369216A22688C
:100BF0000B4313602268136843F001031360002065
:100C00006064202384F84130206384F8420010BDE2
:100C100080F8403002F0F6FEB8E7A368226843F49B
:100C200000439360CCE723684FF400625A60CAE740
:100C3000012070470080000290F84130DBB2202B89
:100C400024D190F84030012B22D0012380F840308D
:100C5000242380F841300268136823F001031360F5
:100C60000268136823F48053136002681368194301
:100C700011600268136843F001031360202380F8B9
:100C80004130002380F840301846704702207047FA
:100C90000220704790F84130DBB2202B22D190F82F
:100CA0004030012B20D0012380F84030242380F8ED
:100CB00041300268136823F001031360026813686F
:100CC00023F4706343EA012111600268136843F062
:100CD00001031360202380F84130002380F8403066
:100CE000184670470220704702207047024A136876
:100CF00043F48073136070470070004010B582B0F9
:100D00001B4B1A6C42F080521A641B6C03F0805328
:100D10000193019B174A136843F480331360FFF774
:100D2000ADFD0446134B5B6813F4803F08D1FFF719
:100D3000A5FD001BB0F57A7FF4D9032002B010BDE9
:100D40000C4A136843F400331360FFF797FD044621
:100D5000084B5B6813F4003F07D1FFF78FFD001BC2
:100D6000B0F57A7FF4D90320E8E70020E6E700BF7A
:100D70000038024000700040002800F0DA8170B5B1
:100D800082B00446036813F0010F29D0A74B9B687B
:100D900003F00C03042B1AD0A44B9B6803F00C0344
:100DA000082B0FD06368B3F5803F40D0002B54D19F
:100DB0009E4B1A6822F480321A601A6822F480224C
:100DC0001A6039E0994B5B6813F4800FEAD0974BB7
:100DD0001B6813F4003F03D06368002B00F0AB8165
:100DE000236813F0020F74D0904B9B6813F00C0F24
:100DF0005ED08E4B9B6803F00C03082B53D0E36846
:100E0000002B00F08980894A136843F001031360C6
:100E1000FFF734FD0546854B1B6813F0020F72D1B6
:100E2000FFF72CFD401B0228F5D9032088E17F4AFB
:100E3000136843F48033136063682BB3FFF71EFD20
:100E400005467A4B1B6813F4003FC9D1FFF716FD26
:100E5000401B6428F5D9032072E1B3F5A02F09D017
:100E6000724B1A6822F480321A601A6822F48022C7
:100E70001A60E1E76D4B1A6842F480221A601A6822
:100E800042F480321A60D7E7FFF7F8FC0546674B5B
:100E90001B6813F4003FA3D0FFF7F0FC401B64284D
:100EA000F5D903204CE1614B5B6813F4800FA6D1A8
:100EB0005E4B1B6813F0020F03D0E368012B40F078
:100EC0003C815A4A136823F0F803216943EAC103BD
:100ED0001360236813F0080F46D0636983B3534A45
:100EE000536F43F001035367FFF7C8FC05464F4BB0
:100EF0005B6F13F0020F37D1FFF7C0FC401B0228D5
:100F0000F5D903201CE1494A136823F0F80321694D
:100F100043EAC1031360DCE7444A136823F001038A
:100F20001360FFF7ABFC0546404B1B6813F0020F44
:100F3000CFD0FFF7A3FC401B0228F5D90320FFE028
:100F40003A4A536F23F001035367FFF797FC0546B6
:100F5000364B5B6F13F0020F06D0FFF78FFC401B80
:100F60000228F5D90320EBE0236813F0040F7DD0AD
:100F70002E4B1B6C13F0805F0BD12C4B1A6C42F084
:100F800080521A641B6C03F080530193019B01256E
:100F900000E00025264B1B6813F4807F0ED0A36869
:100FA000012B1FD0002B35D1204B1A6F22F00102EC
:100FB0001A671A6F22F004021A6718E01C4A1368B5
:100FC00043F480731360FFF759FC0646184B1B6807
:100FD00013F4807FE3D1FFF751FC801B6428F5D91F
:100FE0000320ADE0114A136F43F001031367A368B8
:100FF00053B3FFF743FC06460C4B1B6F13F0020F75
:1010000033D1FFF73BFC801B41F288339842F3D980
:10101000032095E0052B0DD0044B1A6F22F001023E
:101020001A671A6F22F004021A67E0E700380240DC
:1010300000700040444B1A6F42F004021A671A6FA6
:1010400042F001021A67D2E7FFF718FC06463E4B52
:101050001B6F13F0020F08D0FFF710FC801B41F24A
:1010600088339842F3D903206AE0F5B9A369002BCD
:1010700065D0354A926802F00C02082A62D0022B31
:1010800019D0314A136823F080731360FFF7F6FB21
:1010900004462D4B1B6813F0007F48D0FFF7EEFB92
:1010A000001B0228F5D903204AE0274A136C23F0DD
:1010B00080531364DAE7244A136823F080731360C3
:1010C000FFF7DCFB0546204B1B6813F0007F06D0C2
:1010D000FFF7D4FB401B0228F5D9032030E0E36979
:1010E000226A1343626A43EA8213A26A5208013AEF
:1010F00043EA0243E26A43EA0263226B43EA027371
:10110000114A5360136843F080731360FFF7B6FB16
:1011100004460D4B1B6813F0007F06D1FFF7AEFBB2
:10112000001B0228F5D903200AE0002008E0002077
:1011300006E001207047012002E0012000E00020CD
:1011400002B070BD0120FBE700380240F8B52F4B1C
:101150009B6803F00C03042B53D0082B53D12B4B6B
:101160005A6802F03F025B6813F4800F28D0274BC7
:101170005B68C3F3881358010021C01A61F10001B4
:101180008E0146EA906687013C1A66EB0105E9008C
:1011900041EA5471E000C01841F100014B0243EAFA
:1011A000D0534402204619460023FFF7A3F9174BFA
:1011B0005B68C3F3014301335B00B0FBF3F023E052
:1011C000124B5B68C3F388135C010025E41A65F1D8
:1011D0000005AE0146EA9466A701381B66EB0501DF
:1011E000CC0044EA5074C500E81844F100018B02B9
:1011F00043EA90538402204619460023FFF77AF908
:10120000D5E7034800E00348F8BD00BF00380240BE
:1012100000127A000024F400002800F09F8070B5CE
:101220000D460446514B1B6803F00F038B420BD253
:101230004E4A136823F00F030B431360136803F047
:101240000F038B4240F08C80236813F0020F17D0FD
:1012500013F0040F04D0464A936843F4E0539360BC
:10126000236813F0080F04D0414A936843F46043A5
:1012700093603F4A936823F0F003A1680B439360A7
:10128000236813F0010F31D06368012B20D0022BAB
:1012900025D0374A126812F0020F63D034498A68A9
:1012A00022F0030213438B60FFF7E8FA0646304B47
:1012B0009B6803F00C036268B3EB820F16D0FFF754
:1012C000DDFA801B41F288339842F0D9032044E0D4
:1012D000274A126812F4003FE0D101203DE0244A81
:1012E000126812F0007FD9D1012036E01F4B1B6835
:1012F00003F00F03AB420AD91C4A136823F00F0313
:101300002B431360136803F00F03AB422CD1236807
:1013100013F0040F06D0164A936823F4E053E168F3
:101320000B439360236813F0080F07D0104A9368AB
:1013300023F46043216943EAC1039360FFF706FF8A
:101340000B4B9B68C3F303130A4AD35CD8400A4B88
:1013500018600020FFF74AFA002070BD0120704796
:101360000120FAE70120F8E70120F6E7003C0240FF
:1013700000380240A80103080C000020014B186847
:10138000704700BF0C00002008B5FFF7F7FF044BC3
:101390009B68C3F38223034AD35CD84008BD00BFD7
:1013A00000380240B801030808B5FFF7E7FF044B17
:1013B0009B68C3F34233034AD35CD84008BD00BFE7
:1013C00000380240B8010308F0B583B0044606684F
:1013D00016F001060DD0B54B9A6822F400029A600F
:1013E0009A68416B0A439A60436B002B00F0558169
:1013F0000026256815F4002511D0AC4AD2F88C30AF
:1014000023F44013E16B0B43C2F88C30E36BB3F56C
:10141000801F00F04481002B00F0438100252368E9
:1014200013F4801F0FD0A14AD2F88C3023F440036C
:10143000216C0B43C2F88C30236CB3F5800F00F0A5
:10144000328103B90125236813F0807F00D0012683
:1014500013F0200F40F02C81236813F0100F0CD0F4
:10146000924BD3F88C2022F08072C3F88C20D3F8F2
:101470008C20A16B0A43C3F88C20236813F4804F9F
:1014800008D08A4AD2F8903023F44033616E0B437F
:10149000C2F89030236813F4004F08D0834AD2F882
:1014A000903023F44023A16E0B43C2F890302368A0
:1014B00013F4803F08D07D4AD2F8903023F44013D3
:1014C000E16E0B43C2F89030236813F4003F08D05C
:1014D000764AD2F8903023F44003216F0B43C2F8D0
:1014E0009030236813F0400F08D0704AD2F8903043
:1014F00023F00303616C0B43C2F89030236813F0B0
:10150000800F08D0694AD2F8903023F00C03A16C08
:101510000B43C2F89030236813F4807F08D0634AED
:10152000D2F8903023F03003E16C0B43C2F89030D6
:10153000236813F4007F08D05C4AD2F8903023F07F
:10154000C003216D0B43C2F89030236813F4806F01
:1015500008D0564AD2F8903023F44073616D0B43A3
:10156000C2F89030236813F4006F08D04F4AD2F8C5
:10157000903023F44063A16D0B43C2F89030236890
:1015800013F4805F08D0494AD2F8903023F44053D6
:10159000E16D0B43C2F89030236813F4005F08D06C
:1015A000424AD2F8903023F44043216E0B43C2F8F4
:1015B0009030236813F4800F08D03C4AD2F8903062
:1015C00023F08063A16F0B43C2F89030236813F4BB
:1015D000001F0DD0354AD2F8903023F00063E16F40
:1015E0000B43C2F89030E36FB3F1006F00F0C68098
:1015F000236813F0080F00D0012513F4802F08D0C2
:101600002A4AD2F8903023F04073616F0B43C2F83E
:101610009030236813F4000F09D0244AD2F8903098
:1016200023F08053D4F880100B43C2F89030236825
:1016300013F0806F09D01D4AD2F8903023F0005388
:10164000D4F884100B43C2F89030236813F0006F75
:1016500009D0164AD2F88C3023F00073D4F88810E1
:101660000B43C2F88C30236813F0805F09D00F4A17
:10167000D2F88C3023F08063D4F88C100B43C2F87E
:101680008C30002E7CD12368B3F1007F78D0012DFF
:1016900000F00981002003B0F0BD0126A9E6012673
:1016A000B9E60125BBE60126CBE600BF00380240C3
:1016B000B74B1A6C42F080521A641B6C03F08053D3
:1016C0000193019BB34A136843F480731360FFF7DF
:1016D000D5F80746AF4B1B6813F4807F06D1FFF7A0
:1016E000CDF8C01B6428F5D90320D4E7A84B1B6FA5
:1016F00013F4407315D0226B02F440729A4210D05A
:10170000A34B1A6F22F44072196F41F480311967AC
:10171000196F21F4803119671A671B6F13F0010FDD
:1017200012D1236B03F44072B2F5407F1DD0984A6A
:10173000936823F4F813936095490B6F226BC2F3FF
:101740000B0213430B6787E6FFF798F80746904BA9
:101750001B6F13F0020FE4D1FFF790F8C01B41F2AA
:1017600088339842F3D9032095E78948826822F4A8
:10177000F812894919400A438260DDE7012537E7FD
:10178000834A136823F080631360FFF777F80646F7
:101790007F4B1B6813F0006F06D0FFF76FF8801BBC
:1017A0006428F5D9032076E7236813F0010F13D0DE
:1017B000636B8BB9764AD2F88430D2F884106068B3
:1017C00003F4403343EA801301F070610B43A168D6
:1017D00043EA0173C2F88430236813F4002F03D066
:1017E000E26BB2F5801F06D013F4801F1ED0236C6D
:1017F000B3F5800F1AD1664AD2F88430D2F884103B
:10180000606803F4403343EA8013E06843EA00630E
:1018100001F0E0410B43C2F88430D2F88C3023F061
:101820001F03616A01390B43C2F88C30236813F03F
:10183000807F11D0564AD2F88400D2F884106668AE
:1018400023691B0443EA861300F07060034301F030
:10185000E0410B43C2F88430236813F0007F0DD0C1
:10186000626823691B0443EA8213E26843EA026365
:10187000A26843EA0273464AC2F88430444A1368B5
:1018800043F080631360FEF7F9FF0646404B1B6888
:1018900013F0006F7FF4FBAEFEF7F0FF801B6428AF
:1018A000F4D90320F7E63A4A136823F08053136013
:1018B000FEF7E4FF0546364B1B6813F0005F06D0C9
:1018C000FEF7DCFF401B6428F5D90320E3E623681C
:1018D00013F4002F01D0E26B22B113F4801F1DD04E
:1018E000236CDBB92A4AD2F88830D2F888106069B4
:1018F00003F4403343EA8013A06943EA006301F034
:10190000E0410B43C2F88830D2F88C3023F4F8530E
:10191000A16A013943EA0123C2F88C30236813F429
:10192000001F03D0E36FB3F1006F37D0236813F0CB
:10193000080F19D0164AD2F88810D2F8883060699A
:1019400003F4403343EA801301F070610B43E16913
:1019500043EA0173C2F88830D2F88C3023F4403364
:10196000E16A0B43C2F88C30094A136843F0805394
:101970001360FEF783FF0446054B1B6813F0005FFE
:101980001FD1FEF77BFF001B6428F5D9032082E6F8
:101990000038024000700040FFFCFF0F0A4AD2F8F6
:1019A0008800D2F888106569236A1B0443EA85130E
:1019B00000F07060034301F0E0410B43C2F888304F
:1019C000B4E7002067E600BF0038024098B110B5C8
:1019D000044643795BB1022363712268136843F0C4
:1019E00004031360012363710020A06010BD037124
:1019F00002F008FEEFE701207047F8B50379012BEC
:101A00002BD004460E46012303714579EDB29D4269
:101A100006D0042383600125002323712846F8BDE6
:101A200002234371FEF72AFF074623685A6812F023
:101A3000010F0BD1FEF722FFC01B0228F5D90123AD
:101A400063710223A36000232371E7E79B68E360CF
:101A50003360012363710025DEE70225DEE710B560
:101A6000044600F10C01FFF7C8FF08B9E06810BD9B
:101A70000020FCE72DE9F0410646884617461D4642
:101A80003468A46838EA04030CBF01240024BC4273
:101A900037D0B5F1FF3FF3D0FEF7F0FE069BC01A3A
:101AA000A84201D2002DEBD13268536823F0E00345
:101AB00053607368B3F5827F0BD0B36AB3F5005FF0
:101AC00014D0012386F85D30002386F85C300320B3
:101AD00018E0B368B3F5806F18BFB3F5004FECD1D1
:101AE0003268136823F040031360E6E73268136836
:101AF00023F4005313603268136843F400531360F7
:101B0000DFE70020BDE8F0812DE9F84381460F466C
:101B10001646984602E0B8F1FF3F0CD1D9F80050C4
:101B2000AC683C40B44243D0B7F5C06F08BF002E4C
:101B3000F1D12B7BEFE7FEF7A1FE089BC01A4045D1
:101B400002D2B8F1000FE9D1D9F80020536823F090
:101B5000E0035360D9F80430B3F5827F0CD0D9F894
:101B60002830B3F5005F16D0012389F85D300023DB
:101B700089F85C3003201CE0D9F80830B3F5806F99
:101B800018BFB3F5004FEAD1D9F80020136823F04D
:101B900040031360E3E7D9F80020136823F40053EF
:101BA0001360D9F80020136843F400531360DBE797
:101BB0000020BDE8F88370B582B004460D46164695
:101BC00000920B4600224FF4C051FFF79DFFB0B9C1
:101BD00000962B46002280212046FFF74BFFA8B934
:101BE00000962B4600224FF4C0612046FFF78CFF81
:101BF00050B1236E43F020032366032004E0236EDC
:101C000043F020032366032002B070BD236E43F02F
:101C1000200323660320F7E7002858D010B50446B8
:101C20000023836290F85D30002B45D0022384F8B6
:101C30005D302268136823F040031360E368B3F556
:101C4000E06F3ED90022B3F5706F18BFB3F5E06FB7
:101C500001D00021A162216B21B9B3F5E06F33D926
:101C6000022323636368A1680B4321690B43616905
:101C70000B43A16901F400710B43E1690B43216A35
:101C80000B43A06A216803430B60638B03F00403DA
:101C9000616A0B43616B0B43E1680B43216813439B
:101CA0004B602268D36923F40063D361002020666F
:101CB000012384F85D3010BD80F85C3002F0DCFC5C
:101CC000B4E74FF48052BEE701232363CAE7012043
:101CD00070472DE9F04383B01D4690F85C30012B2E
:101CE00000F0EE80044689469046012380F85C307F
:101CF000FEF7C4FD074694F85D60F6B2012E40F091
:101D0000CC80B8FA88F35B09B9F1000F08BF012352
:101D1000002B40F0C380032384F85D30002323664A
:101D2000C4F83890A4F83C80A4F83E802364A4F85A
:101D30004430A4F846302365E364A368B3F5004F4C
:101D40001ED023681A6812F0400F03D11A6842F0BF
:101D500040021A60E368B3F5E06F38D9636813B1E5
:101D6000B8F1010F1ED1A26B23681288DA60A36B51
:101D70000233A363E38F9BB2013B9BB2E38711E085
:101D80002268136843F480431360DAE7FEF776FDB8
:101D9000C01BA84203D3B5F1FF3F40F08980002D5E
:101DA00000F08880E38F9BB2002B61D023689A6893
:101DB00012F0020FEAD0A26B1288DA60A36B023332
:101DC000A363E28F92B2013A92B2E287EAE76368D4
:101DD00013B1B8F1010F33D1E38F9BB2012B0CD9B2
:101DE000A26B23681288DA60A36B0233A363E38FCC
:101DF0009BB2023B9BB2E38722E0A26B236812787E
:101E00001A73A36B0133A363E38F9BB2013B9BB2B5
:101E1000E38715E0A36B1B781373A36B0133A363F4
:101E2000E38F9BB2013B9BB2E38709E0FEF726FDFF
:101E3000C01BA84202D3B5F1FF3F3DD1002D3DD0DC
:101E4000E38F9BB2A3B12268936813F0020FEDD029
:101E5000E38F9BB2012BDDD9A36B1B88D360A36BEF
:101E60000233A363E38F9BB2023B9BB2E387E7E7B6
:101E70003A4629462046FFF79EFE08B120232366F6
:101E8000A36833B901932368DA6801929B680193D0
:101E9000019B236E13B9002600E00226012384F87B
:101EA0005D30002384F85C30304603B0BDE8F08339
:101EB0000326F3E70326F1E70326EFE70326EDE722
:101EC0000226F1E730B4036A056A25F001050562D0
:101ED000846924F0F00444EA021423F00A030B435B
:101EE0008461036230BC704730B4056A25F0100588
:101EF00005628469036A24F4704444EA023423F0DE
:101F0000A00343EA01138461036230BC7047836815
:101F100023F070030B4343F0070383607047000016
:101F2000022380F83D3002689168084B0B40062B75
:101F300018BFB3F5803F03D0136843F0010313606B
:101F4000012380F83D300020704700BF07000100EA
:101F5000022380F83D300368196A41F211121142E0
:101F600008D1196A40F24442114203D11A6822F0A2
:101F700001021A60012380F83D300020704770474D
:101F8000704770477047704710B5044603681A6978
:101F900012F0020F11D0DA6812F0020F0DD06FF0BC
:101FA00002021A610123037703689B6913F0030F90
:101FB00079D0FFF7E6FF0023237723681A6912F030
:101FC000040F12D0DA6812F0040F0ED06FF0040282
:101FD0001A610223237723689B6913F4407F68D03A
:101FE0002046FFF7CEFF0023237723681A6912F0FB
:101FF000080F12D0DA6812F0080F0ED06FF0080246
:102000001A61042323772368DB6913F0030F57D089
:102010002046FFF7B6FF0023237723681A6912F0E2
:10202000100F12D0DA6812F0100F0ED06FF01002FD
:102030001A61082323772368DB6913F4407F46D0B5
:102040002046FFF79EFF0023237723681A6912F0CA
:10205000010F03D0DA6812F0010F3FD123681A692B
:1020600012F0800F03D0DA6812F0800F3DD12368A0
:102070001A6912F4807F03D0DA6812F0800F3BD126
:1020800023681A6912F0400F03D0DA6812F0400F8B
:1020900039D123681A6912F0200F03D0DA6812F0E0
:1020A000200F37D110BDFFF76BFF2046FFF76AFF07
:1020B00081E72046FFF764FF2046FFF763FF92E7C2
:1020C0002046FFF75DFF2046FFF75CFFA3E72046B1
:1020D000FFF756FF2046FFF755FFB4E76FF0010208
:1020E0001A612046FFF74BFFB8E76FF080021A61D4
:1020F000204600F064F9BAE76FF480721A61204656
:1021000000F05EF9BCE76FF040021A612046FFF76D
:102110003AFFBEE76FF020021A61204600F04EF948
:10212000C0E7000070B403683A4CA04214BF00241A
:102130000124B0F1804F14BF224644F00102AAB935
:10214000354DA84214BF00250125344EB0420DD0B4
:1021500065B905F1804505F58235A84214BF002513
:10216000012506F50066B04200D01DB123F07003D2
:102170004D682B43002A33D1274A904214BF0022D6
:102180000122264DA8422BD052BB02F1804202F51B
:102190008232904214BF0022012205F50065A84258
:1021A0001ED0EAB91E4A904214BF0022012205F552
:1021B0009A35A84214D09AB91A4A904214BF002204
:1021C000012205F50065A8420AD04AB9164A904294
:1021D00014BF00220122A5F59635A84200D01AB1FD
:1021E00023F44073CA68134323F080034A691343FE
:1021F00003608A68C2620A6882620C4B984214BF0C
:10220000234644F001030BB10B69036301234361CF
:1022100070BC70470000014000080040000400400E
:10222000004401400018004000200040000401402C
:10223000B0B110B5044690F83D3063B1022384F884
:102240003D30214651F8040BFFF76CFF012384F861
:102250003D30002010BD80F83C3002F005FBEDE77A
:102260000120704710B4846824F47F4442EA0322BA
:102270000A43224382605DF8044B704790F83C307B
:10228000012B64D010B50446012380F83C300223B2
:1022900080F83D30026890682E4B034093600B68D5
:1022A000602B40D022D8402B47D00BD9502B0ED1D9
:1022B000CA6849682068FFF705FE50212068FFF7CB
:1022C00026FE04E0202B0CD008D9302B09D00123A6
:1022D00084F83D30002084F83C0010BD0BB1102B79
:1022E000F5D119462068FFF712FEF0E7702B0ED0EB
:1022F000B3F5005FEBD1CB684A6889682068FFF7C7
:10230000B1FF2268936843F480439360DFE7CB68B2
:102310004A6889682068FFF7A5FF2268936843F040
:1023200077039360D3E7CA6849682068FFF7DCFD4C
:1023300060212068FFF7EBFDC9E7CA68496820689B
:10234000FFF7C0FD40212068FFF7E1FDBFE7022055
:10235000704700BF8800FEFF90F83C30012B27D06B
:1023600070B4012380F83C30022380F83D300368CC
:102370005A689D680F4E104CA34218BFB34203D158
:1023800022F470024C68224322F070020C6822434F
:1023900025F08004896821435A600368996001230D
:1023A00080F83D30002380F83C30184670BC704700
:1023B0000220704700000140000401407047704750
:1023C0007047000038B504468368026913434269C8
:1023D0001343C2691343016808689F4A02401343CC
:1023E0000B602268536823F44053E1680B43536049
:1023F000A269236A1A4321688B6823F4306313436C
:102400008B602368954A934219D0954A934229D00C
:10241000944A93423ED0944A934262D0934A934264
:1024200071D0934A934200F08380924A934200F025
:102430009480914A934200F0A58010253AE08F4B9A
:10244000D3F8903003F00303032B09D8DFE803F03F
:102450000204AE0601252DE004252BE0082529E025
:10246000102527E0854BD3F8903003F00C030C2B9C
:102470000ED8DFE803F0070D0D0D090D0D0D9D0DB4
:102480000D0D0B00002515E0042513E0082511E0D3
:1024900010250FE0794BD3F8903003F03003202B58
:1024A00000F0888019D8002B00F08680102B40F0B7
:1024B00085800425E369B3F5004F00F0AB80082D5B
:1024C00000F24081DFE815F00701180122013E010A
:1024D0002B013E013E013E013501302B70D1082514
:1024E000E8E7664BD3F8903003F0C003802B69D047
:1024F00005D8002B68D0402B68D10425DAE7C02B23
:1025000066D10825D6E75D4BD3F8903003F44073CD
:10251000B3F5007F5ED006D8002B5DD0B3F5807F89
:102520005CD10425C6E7B3F5407F59D10825C1E742
:10253000524BD3F8903003F44063B3F5006F51D0A1
:1025400006D8002B50D0B3F5806F4FD10425B1E7EA
:10255000B3F5406F4CD10825ACE7484BD3F8903029
:1025600003F44053B3F5005F44D006D8002B43D0AA
:10257000B3F5805F42D104259CE7B3F5405F3FD1BE
:10258000082597E73D4BD3F8903003F44043B3F56B
:10259000004F37D005D8BBB3B3F5804F36D10425F3
:1025A00088E7B3F5404F33D1082583E7022581E75B
:1025B00002257FE702257DE700257BE7102579E7E7
:1025C000102577E7022575E7002573E7102571E7E9
:1025D00010256FE702256DE700256BE7102569E7F9
:1025E000102567E7022565E7012563E7102561E708
:1025F00010255FE702255DE700255BE7102559E719
:10260000102557E7022555E7002553E7102551E728
:1026100010254FE7082D5BD8DFE805F005323D5A5D
:10262000465A5A5A5100FEF7AFFE6268530803EB50
:102630004003B3FBF2F39BB2A3F110014FF6EF722C
:10264000914200F282809AB222F00F02C3F3420359
:1026500013432268D3607BE0F369FFEF0010014071
:102660000044004000480040004C00400050004042
:102670000014014000780040007C00400038024017
:10268000FEF792FE6268530803EB4003B3FBF2F3DC
:102690009BB20025D0E76268304B03EB5203B3FBDB
:1026A000F2F39BB20025C7E7FEF750FD62685308BE
:1026B00003EB4003B3FBF2F39BB20025BCE7626877
:1026C000530803F58033B3FBF2F39BB20025B3E765
:1026D00001250023B0E7FEF757FE626800EB5203C6
:1026E000B3FBF2F39BB2A3F110014FF6EF729142EC
:1026F0002DD82268D3602BE0FEF756FE626800EB0F
:102700005203B3FBF2F39BB20025ECE76268144B73
:1027100003EB5203B3FBF2F39BB20025E3E7FEF7B2
:1027200015FD626800EB5203B3FBF2F39BB2002588
:10273000D9E76268530803F50043B3FBF2F39BB299
:102740000025D0E701250023CDE7012500E0012584
:10275000002323666366284638BD00BF0048E801B1
:102760000024F400436A13F0010F06D00268536896
:1027700023F40033816A0B435360436A13F0020F62
:1027800006D00268536823F48033C16A0B43536058
:10279000436A13F0040F06D00268536823F48023C1
:1027A000016B0B435360436A13F0080F06D00268B5
:1027B000536823F40043416B0B435360436A13F0A7
:1027C000100F06D00268936823F48053816B0B438B
:1027D0009360436A13F0200F06D00268936823F4D5
:1027E0000053C16B0B439360436A13F0400F0AD050
:1027F0000268536823F48013016C0B435360036C2D
:10280000B3F5801F0BD0436A13F0800F06D0026827
:10281000536823F40023816C0B43536070470268B4
:10282000536823F4C003416C0B435360EBE72DE97D
:10283000F84305460F4616469946DDF820802C6879
:10284000E46937EA04030CBF01240024B4421DD11B
:10285000B8F1FF3FF3D0FEF711F8A0EB09004045B7
:1028600002D8B8F1000FEAD12A68136823F4D073B4
:1028700013602A68936823F00103936020236B6739
:10288000AB67002385F87030032000E00020BDE82E
:10289000F88310B582B004460023C367FDF7EEFF4E
:1028A00023681B6813F0080F07D120236367A36711
:1028B000002084F8700002B010BD6FF07E430093DA
:1028C000034600224FF400112046FFF7B0FF002816
:1028D000EBD00320EFE768B310B50446436F03B3B2
:1028E000242363672268136823F0010313602046E2
:1028F000FFF768FD012813D0636ABBB922685368EB
:1029000023F4904353602268936823F02A03936072
:102910002268136843F0010313602046FFF7B9FFF4
:1029200010BD80F8703001F0EBFFD9E72046FFF7CB
:1029300019FFE3E7012070472DE9F04F89B0814688
:1029400088461E460792531E00935200C2F10107AB
:1029500001230693059300230193009B019A934260
:1029600061DBBDF8005005EB09039BB2BDF80440E4
:1029700004EB080B1FFA8BFB3246594602931846AC
:1029800000F0F8FC04EB09039BB205EB080A1FFA00
:102990008AFA324651460393184600F0EBFCA9EB45
:1029A00004039AB21346324651460493184600F087
:1029B000E1FCA9EB050A1FFA8AFA3246594650464D
:1029C00000F0D8FCA8EB0404A4B2324621465046DD
:1029D00000F0D0FCA8EB0505ADB2324629460498BC
:1029E00000F0C8FC32462946039800F0C3FC32468A
:1029F0002146029800F0BEFC002F0CDD002FACDD5C
:102A0000009B013B0093059B02330593079AA3EBC0
:102A100042031F44A1E7019B01330193069B1F441E
:102A200002330693EAE709B0BDE8F08F2DE9F04FD5
:102A300085B002900F461E4691465200C2F1010336
:102A40000393002300930193984641E01FFA85FB0E
:102A50001FFA88F4E119324689B2584600F08AFC20
:102A6000391B324689B2584600F084FC01350AEB26
:102A70000903AB42EADA029BA3EB080510E01FFA58
:102A800085FB1FFA89F4E119324689B2584600F0F5
:102A900071FC391B324689B2584600F06BFC013597
:102AA0000AEB0803AB42EADA08F10108009B019A3D
:102AB000134400930232019203991A4601EB430337
:102AC000002B05DD09F1FF390A4400928B1C0393AA
:102AD000C14504DB029B9A46A3EB0905C7E705B095
:102AE000BDE8F08F2DE9F04705460C4616461F4617
:102AF000BDF820A0131A07EE903AF8EEE77AF5EE4B
:102B0000C07AF1EE10FA35D400233A1B07EE902A72
:102B1000F8EEE77AF5EEC07AF1EE10FA2CD44FF029
:102B2000000863BBA6EB05091FFA89F953464A461C
:102B30002146284600F01AFD53464A4639462846A3
:102B400000F014FDB8F1000F1ED1A7EB04081FFA26
:102B500088F8534642462146284600F02FFD53464A
:102B600042462146304600F029FD59EA080310D1BB
:102B7000BDE8F0870123C8E74FF00108D1E7A5EBD6
:102B800006091FFA89F9D1E7A4EB07081FFA88F8AC
:102B9000DFE752463946304600F0ECFBE8E730B557
:102BA00083B015461C46131A002B11DB0022631A52
:102BB000002B0FDB00237AB92D1AAAB283B9641A4D
:102BC000A3B2BDF81840009400F098FC03B030BDEB
:102BD0000122ECE70123EEE7401B82B22846EDE735
:102BE000091B8BB22146ECE72DE9F04385B09946ED
:102BF000BDF830601F2801D92038C0B20023052B52
:102C00000CD800EB4004254D05EB4404E55C04AC16
:102C10001C4404F8085C0133DBB2F0E78FB21FFA02
:102C200082F8F3009BB206EB4602520092B2BDF866
:102C3000341000914146384600F060FC002526E043
:102C400015FB06F014FB06F118FA81F117FA80F073
:102C5000CDF800903346324689B280B200F04EFC87
:102C60000134E4B2072C10D804AB2B4413F8082C21
:102C7000224112F0010FF3D0012EE1D14A4608EBB8
:102C80000401781900F076FBEAE70135EDB2052D75
:102C900001D80024E6E705B0BDE8F08358A5000898
:102CA0002DE9F04383B004460D4690461F46BDF81B
:102CB0002860BDF82C90207870B10134CDF80490D4
:102CC00000963B4642462946FFF78EFF06EB46013B
:102CD00005EB4101CDB2EEE703B0BDE8F0830000A3
:102CE00070B5FEB00446012908D003293ED0022960
:102CF00074D0002900F0AA807EB070BD012000F0E1
:102D00007DF9F0234FF4A0720021084600F030F95D
:102D10006A4D01224FF400712846FDF728FF00227A
:102D20004FF480712846FDF722FF0026354611E05A
:102D3000EA18A15C01AAD1540133B3F5FA7FF7D3A5
:102D40000A234FF4FA7201A95D48FEF7C2FF05F5A8
:102D5000FA750136B6F5997F01D80023EDE7012217
:102D60004FF480715548FDF702FFC5E7032000F0DE
:102D700045F9F0234FF4A0720021084600F0F8F85E
:102D80004E4D01224FF400712846FDF7F0FE00225F
:102D90004FF480712846FDF7EAFE0026354609E02B
:102DA0000A234FF4FA7201A94548FEF792FF05F590
:102DB000FA750136B6F5997F09D80023B3F5FA7F85
:102DC000EED2EA18A15C01AAD1540133F6E7012240
:102DD0004FF480713948FDF7CAFE8DE7022000F0FC
:102DE0000DF94FF4A073F0220021084600F0C0F85E
:102DF000324D01224FF400712846FDF7B8FE002243
:102E00004FF480712846FDF7B2FE0026354609E0F2
:102E10000A234FF4FA7201A92948FEF75AFF05F573
:102E2000FA750136B6F5997F09D80023B3F5FA7F14
:102E3000EED2EA18A15C01AAD1540133F6E70122CF
:102E40004FF480711D48FDF792FE55E7002000F019
:102E5000D5F84FF4A073F0220021084600F088F85E
:102E6000164D01224FF400712846FDF780FE002226
:102E70004FF480712846FDF77AFE0026354609E0BA
:102E80000A234FF4FA7201A90D48FEF722FF05F557
:102E9000FA750136B6F5997F09D80023B3F5FA7FA4
:102EA000EED2EA18A15C01AAD1540133F6E701225F
:102EB0004FF480710148FDF75AFE1DE700080240FB
:102EC000780A002008B501F0B3FB00F07BFC00227B
:102ED0004FF480710148FDF74AFE08BD000802402A
:102EE00000B583B08DF8070001231A460DF10701E4
:102EF0000248FEF7EEFE03B05DF804FB780A0020FE
:102F000038B505460B4C00224FF480712046FDF782
:102F10002EFE00224FF400712046FDF728FE2846C1
:102F2000FFF7DEFF01224FF480712046FDF71FFE00
:102F300038BD00BF0008024038B505460B4C0122E1
:102F40004FF400712046FDF712FE00224FF480710D
:102F50002046FDF70CFE2846FFF7C2FF01224FF482
:102F600080712046FDF703FE38BD00BF0008024017
:102F7000F8B507460D4616461C462A20FFF7C0FF47
:102F8000380AFFF7D9FFF8B2FFF7D6FF300AFFF78C
:102F9000D3FFF0B2FFF7D0FF2B20FFF7B1FF280AD5
:102FA000FFF7CAFFE8B2FFF7C7FF200AFFF7C4FF29
:102FB000E0B2FFF7C1FF2C20FFF7A2FFF8BD000031
:102FC00010B50D4C01224FF480612046FDF7CFFD76
:102FD000C820FDF759FC00224FF480712046FDF710
:102FE000C6FDC820FDF750FC01224FF48061204649
:102FF000FDF7BDFD10BD00BF0008024010B504463E
:103000003620FFF77DFF0120FDF73EFC032C0DD895
:10301000DFE804F0020D18234820FFF78DFF144B62
:10302000F0221A80134B4FF4A0721A8010BD282092
:10303000FFF782FF0E4B4FF4A0721A800D4BF02267
:103040001A80F3E78820FFF777FF094BF0221A80F8
:10305000084B4FF4A0721A80E8E7E820FFF76CFFF6
:10306000034B4FF4A0721A80024BF0221A80DDE766
:103070000A0000200800002008B501224FF48061FA
:103080000148FDF774FD08BD0008024008B5FFF7D0
:10309000F3FFFFF717FFFFF793FF0120FFF730FF64
:1030A0004FF47A70FDF7F0FBCB20FFF729FF3920B2
:1030B000FFF742FF2C20FFF73FFF0020FFF73CFF08
:1030C0003420FFF739FF0220FFF736FFCF20FFF74C
:1030D00017FF0020FFF730FFC120FFF72DFF302042
:1030E000FFF72AFFE820FFF70BFF8520FFF724FFFB
:1030F0000020FFF721FF7820FFF71EFFEA20FFF7EF
:10310000FFFE0020FFF718FF0020FFF715FFED205E
:10311000FFF7F6FE6420FFF70FFF0320FFF70CFF19
:103120001220FFF709FF8120FFF706FFF720FFF7C6
:10313000E7FE2020FFF700FFC020FFF7E1FE23207D
:10314000FFF7FAFEC120FFF7DBFE1020FFF7F4FEC9
:10315000C520FFF7D5FE3E20FFF7EEFE2820FFF743
:10316000EBFEC720FFF7CCFE8620FFF7E5FE3620FA
:10317000FFF7C6FE4820FFF7DFFE3A20FFF7C0FE4C
:103180005520FFF7D9FEB120FFF7BAFE0020FFF768
:10319000D3FE1820FFF7D0FEB620FFF7B1FE0820BF
:1031A000FFF7CAFE8220FFF7C7FE2720FFF7C4FE05
:1031B000F220FFF7A5FE0020FFF7BEFE2620FFF756
:1031C0009FFE0120FFF7B8FEE020FFF799FE0F20D9
:1031D000FFF7B2FE3120FFF7AFFE2B20FFF7ACFE6A
:1031E0000C20FFF7A9FE0E20FFF7A6FE0820FFF730
:1031F000A3FE4E20FFF7A0FEF120FFF79DFE372033
:10320000FFF79AFE0720FFF797FE1020FFF794FEC6
:103210000320FFF791FE0E20FFF78EFE0920FFF737
:103220008BFE0020FFF788FEE120FFF769FE0020FB
:10323000FFF782FE0E20FFF77FFE1420FFF77CFED3
:103240000320FFF779FE1120FFF776FE0720FFF736
:1032500073FE3120FFF770FEC120FFF76DFE48209E
:10326000FFF76AFE0820FFF767FE0F20FFF764FEF6
:103270000C20FFF761FE3120FFF75EFE3620FFF7DE
:103280005BFE0F20FFF758FE1120FFF739FE782074
:10329000FDF7FAFA2920FFF733FE0020FFF7AEFE14
:1032A00008BD00002DE9F04700AF06460D464FEA85
:1032B0004108B8F5FA7F01D34FF4FA751E4C01228C
:1032C0004FF400712046FDF752FC00224FF480714C
:1032D0002046FDF74CFC310AEB1D23F00703ADEB54
:1032E000030D6C460023AB4204D2E1545A1CA65491
:1032F0000233F8E7B8FBF5F905FB198AA8450FD2A8
:103300000A231FFA8AF221460C48FEF7E2FC01224A
:103310004FF480710848FDF72AFCBD46BDE8F087F0
:1033200000264E45ECD20A23AAB221460348FEF7F6
:10333000D0FC0136F5E700BF00080240780A002003
:1033400070B50446094E3288094D2B889BB292B263
:1033500000210846FFF70CFE33889BB2298889B20A
:1033600001FB03F12046FFF79DFF70BD0A0000201E
:10337000080000205D4B1B889BB2834240F2B58061
:10338000F0B585B004460E461746594B1B889BB2D4
:103390008B4201D805B0F0BD564D00224FF40071AC
:1033A0002846FDF7E4FB00224FF480712846FDF724
:1033B000DEFB2A20FFF794FD01224FF4007128461E
:1033C000FDF7D5FB01224FF480712846FDF7CFFBB6
:1033D00000224FF480712846FDF7C9FB230A8DF8BF
:1033E0000C30E3B28DF80D30013424128DF80E400C
:1033F00001338DF80F30404C0123042203A92046ED
:10340000FEF767FC01224FF480712846FDF7AFFB01
:1034100000224FF400712846FDF7A9FB00224FF46B
:1034200080712846FDF7A3FB2B20FFF759FD0122F1
:103430004FF400712846FDF79AFB01224FF480718A
:103440002846FDF794FB00224FF480712846FDF7D3
:103450008EFB330A8DF80830F3B28DF8093001364F
:1034600036128DF80A6001338DF80B3001230422E7
:1034700002A92046FEF72DFC01224FF48071284658
:10348000FDF775FB00224FF400712846FDF76FFB36
:1034900000224FF480712846FDF769FB2C20FFF7CE
:1034A0001FFD01224FF400712846FDF760FB012249
:1034B0004FF480712846FDF75AFB00224FF48071CB
:1034C0002846FDF754FB3B0A8DF804308DF8057053
:1034D0000123022201A92046FEF7FBFB01224FF443
:1034E00080712846FDF743FB54E770470A0000202F
:1034F0000800002000080240780A002038B51C4669
:10350000184B1B889BB283422BD91546164B1B8840
:103510009BB28B4225D98218124B1B889BB29A42D0
:1035200004DD104B1D88ADB22D1AADB20A190E4B39
:103530001B889BB29A4204DD0B4B1C88A4B2641A10
:10354000A4B22A1892B263189BB2013B013A9BB213
:1035500092B2FFF70DFD05FB04F1BDF81000FFF777
:10356000A1FE38BD0A0000200800002038B514462E
:103570001D46104B1A8892B282421AD90E4B1B88F4
:103580009BB28B4215D902190A4B1B889BB29A42F7
:1035900004DD084B1C88A4B2241AA4B2221892B2EB
:1035A000013A0B4692B2FFF7E3FC21462846FFF7AB
:1035B00079FE38BD0A0000200800002038B5144606
:1035C0001D46104B1A8892B282421AD90E4B1B88A4
:1035D0009BB28B4215D90A190B4B1B889BB29A429E
:1035E00004DD094B1C88A4B2641AA4B263189BB210
:1035F000013B9BB20246FFF7BBFC21462846FFF782
:1036000051FE38BD0A0000200800002070B50024DB
:10361000102501E0013DEDB2ADB16400A4B20B4E46
:10362000012208213046FDF7A2FA00220821304687
:10363000FDF79DFA10213046FDF792FA0028E9D0F7
:103640000134A4B2E6E7204670BD00BF001002407E
:1036500070B50446002208211148FDF788FA0825B4
:1036600013E0012220210E48FDF781FA6400E4B244
:103670000B4E012208213046FDF779FA002208217D
:103680003046FDF774FA013DEDB245B114F0800FFC
:10369000E7D1002220210248FDF769FAE6E770BD74
:1036A00000100240000000002DE9F04106463C4CAD
:1036B000012208212046FDF75AFA01222021204646
:1036C000FDF755FA012240212046FDF750FA00226D
:1036D00040212046FDF74BFA00274FF47A743D460F
:1036E0000DE09020FFF7B4FFFFF790FF0544D020D6
:1036F000FFF7AEFFFFF78AFF8044013C01372CB192
:1037000004212748FDF72CFA0028EAD001224021A5
:103710002348FDF72CFAB7F57A7F04D000203080DB
:103720007080BDE8F08104211D48FDF719FA0028DA
:10373000F4D1B8FBF7F2B5FBF7F392B29BB2524269
:1037400092B25B429BB21749A1FB0201521A01EBF4
:103750005202C2F30F22C2F1E30207EE102AB8EEC2
:10376000C77B9FED0D6B27EE067BBCEEC77B17EE8C
:10377000102A32800C4AA2FB0323DB090F3B07EE21
:10378000103AB8EEC77B27EE067BBCEEC77B17EE80
:10379000103A73800120C4E78FC2F5285C8FF23F96
:1037A00000100240E1011EE0A1A0A0A008B5042184
:1037B0000348FDF7D5F908B9012008BD0020FCE752
:1037C000001002402DE9F04F8FB0002409940A94B4
:1037D0000B940C940D946F4B1A6B42F010021A6309
:1037E0001A6B02F010020192019A1A6B42F0040265
:1037F0001A631A6B02F004020292029A1A6B42F0E8
:1038000020021A631A6B02F020020392039A1A6BC9
:1038100042F080021A631A6B02F080020492049A4A
:103820001A6B42F001021A631A6B02F00102059250
:10383000059A1A6B42F002021A631A6B02F0020236
:103840000692069A1A6B42F008021A631A6B02F08B
:1038500008020792079A1A6B42F040021A631B6B28
:1038600003F040030893089B4B4F224668213846DB
:10387000FDF77DF9DFF82CB1224644F2810158466C
:10388000FDF775F9454E224640213046FDF76FF9A8
:10389000DFF8149122464FF4E0614846FDF767F9DE
:1038A000142309930A940B9409A93846FDF768F884
:1038B000682309934FF0010ACDF828A00B94032543
:1038C0000C9509A93846FDF75BF84FF400530993AE
:1038D0000A940B9409A94846FDF752F8322309933C
:1038E0004FF00208CDF828800B940C950B270D970C
:1038F00009A94846FDF744F886230993CDF82880A6
:103900000B940C950D9709A92548FDF739F844F259
:1039100081030993CDF828A00B940C9409A958466B
:10392000FDF72EF84FF400530993CDF828800B943F
:103930000C950D9709A95846FDF722F840230993E5
:10394000CDF828A00B940C9409A93046FDF718F87F
:10395000802309930A940B9409A93046FDF710F8C7
:103960004FF4E0630993CDF828A00B940C9509A9B6
:103970004846FDF705F84FF420530993CDF8288009
:103980000B940C950D9709A93046FCF7F9FF0FB081
:10399000BDE8F08F003802400010024000180240DD
:1039A00000000240000402400008024008B512482E
:1039B000124B0360124B4360002383600122C260FC
:1039C000036143618361C3610362FDF7D7F850B9B6
:1039D00000210948FDF730F940B900210648FDF7FC
:1039E00059F930B908BD00F045F8F1E700F042F8A8
:1039F000F3E700F03FF8F5E71C0A00200054004010
:103A0000FFEAC00010B588B0002303930493059328
:103A1000069307930268144B9A4201D008B010BD78
:103A2000124C236B43F002032363236B03F0020366
:103A30000193019B4FF440730393122304930123DA
:103A40000593032306930423079303A90848FCF76F
:103A500097FF236C43F400132364236C03F40013D7
:103A60000293029BDAE700BF005400400038024096
:103A700000040240FEE7000000B5B9B03422002186
:103A80002BA800F0C3FF00212691279128912991AE
:103A90002A91902202A800F0B9FFFDF727F9294BDF
:103AA0001A6C42F080521A641B6C03F0805300932E
:103AB000009B254B1A6842F440421A601B6803F4CD
:103AC00040430193019B01232B934FF4A0232C939C
:103AD000022331934FF48002329204223392C8229F
:103AE00034923593092336932BA8FDF745F900BB93
:103AF000FDF704F9F8B90F23269302232793002337
:103B000028934FF4A05329934FF480532A9306210E
:103B100026A8FDF781FB80B90C4B02930023159377
:103B20001B93219302A8FDF74FFC40B939B05DF813
:103B300004FBFFF79FFFFFF79DFFFFF79BFFFFF7DA
:103B400099FF00BF00380240007000400041200093
:103B50002DE9F0432DED028B9FB0BFF34F8FBFF3E4
:103B60006F8F954B0021C3F85012BFF34F8FBFF3F7
:103B70006F8F5A6942F400325A61BFF34F8FBFF31F
:103B80006F8FC3F88410BFF34F8FD3F88000C0F35A
:103B90004E3500E01D46C0F3C90243F6E07303EA68
:103BA000451343EA82738449C1F860321346013AEF
:103BB000002BF2D16B1E002DECD1BFF34F8F4B6960
:103BC00043F480334B61BFF34F8FBFF36F8FFCF72C
:103BD00033FEFFF751FFFFF7F5FD00F075FE00F033
:103BE00027FD00F0CDFD00F0FDFC00F005FEFFF725
:103BF000DDFEFFF74BFA4FF6FF70FFF7A1FB012048
:103C0000FFF7FCF94FF6FF740194012300930023A2
:103C10000A2211466948FFF743F84FF4FA60FCF7AF
:103C200033FE2046FFF78CFB2F462E4614E04FF65E
:103C3000FF70FFF785FB0020FFF782FB0134A4B281
:103C4000092CF4D95E4C2046FEF782F923685A6AA3
:103C5000164400225A620137012F04D85848FEF753
:103C60005FF90024ECE74FEA56084FF6FF70FFF7C4
:103C700067FB0120FFF7C2F926F00102514904A8B1
:103C800000F014FF4FF6FF74019401270097002302
:103C90000A22114604A8FFF703F807EE908AF8EE0F
:103CA000677A9FED497AC7EE878A78EEA87AB7EEF1
:103CB000E77A53EC172B454904A800F0F7FE01946E
:103CC0000226009600231E220A2104A8FEF7E8FF20
:103CD000F3EE047A87EEA88AB7EEC88A53EC182B65
:103CE0003B4904A800F0E2FE019400960023322232
:103CF0000A2104A8FEF7D4FF9FED277B28EE077B5F
:103D00009FED276B27EE067B37EE077B9FED266B3B
:103D100087EE068B53EC182B2E4904A800F0C6FE44
:103D200001940096002346220A2104A8FEF7B8FF5A
:103D3000B1EE097B88EE076B9FED1D7B26EE077BBE
:103D400053EC172B244904A800F0B0FE0194009610
:103D500000235A220A2104A8FEF7A2FF42F21070A3
:103D6000FCF792FD2046FFF7EBFA3846FFF746F9DD
:103D70000194009700230A2211461848FEF790FF8D
:103D80004FF4FA60FCF780FD2046FFF7D9FA0027D0
:103D900092E000BFAFF300800000000000006E4022
:103DA00000000000000074400000000080842E41EC
:103DB000000000000000594000ED00E098A7000856
:103DC000DC0A0020B4A7000800409C46D0A70008E9
:103DD000E0A70008ECA70008F8A700080CA8000856
:103DE0003A46C84914A800F061FE4FF6FF760196E6
:103DF0000224009400230A22114614A8FEF750FF63
:103E0000019600941F231E220A2114A8FEF748FFE2
:103E1000019600944FF4784332220A2114A8FEF749
:103E20003FFF019600944FF4FC6346220A2114A838
:103E3000FEF736FF0196009400235A220A2114A8A7
:103E4000FEF72EFF019600941F236E220A2114A86C
:103E5000FEF726FF019600944FF4784382220A2150
:103E600014A8FEF71DFF019600944FF4FC63962200
:103E70000A2114A8FEF714FF4FF00008CDF80480C3
:103E800000943346AA220A2114A8FEF709FFCDF8B0
:103E9000048000941F23BE220A2114A8FEF700FF0D
:103EA000CDF8048000944FF47843D2220A2114A85C
:103EB000FEF7F6FE0137BFB20A2F91D94FF47A70A0
:103EC000FCF7E2FC4FF6FF70FFF73AFA0120FFF72C
:103ED00095F84FF6FF7401940123009300230A2202
:103EE00011468948FEF7DCFE4FF4FA60FCF7CCFC83
:103EF0002046FFF725FA002411E02246814914A844
:103F000000F0D4FD4FF6FF730193032300930023C9
:103F10000A22114614A8FEF7C3FE0134A4B2642C91
:103F2000EBD94FF47A70FCF7AFFC4FF6FF70FFF758
:103F300007FA0120FFF762F84FF6FF74019401279A
:103F4000009700230A2211467048FEF7A9FE4FF49D
:103F5000FA60FCF799FC2046FFF7F2F9002600967C
:103F600064231A4632210846FEF7BCFD0096322330
:103F70001A4614210846FEF712FE009613231A462D
:103F80000A210846FEF7AEFD4FF47A70FCF77CFC80
:103F90002046FFF7D5F93846FFF730F8019400972F
:103FA00033460A2211465A48FEF77AFE01940097DA
:103FB000334614220A215748FEF772FE4FF4FA6086
:103FC000FCF762FC2046FFF7BBF9A94626E0DFF8C4
:103FD0004C814046FDF743FD84B24046FDF73FFD6E
:103FE00086B24046FDF73BFD87B24046FDF737FD00
:103FF0001FFA80F8C4F30804C6F3080607F01F0789
:1040000043463A4631462046FFF7B0FA43463A4621
:1040100031462046FFF7D2FA09F1010947F22F5342
:104020009945D4D94FF47A70FCF72EFC4FF6FF7007
:10403000FFF786F90120FEF7E1FF4FF6FF740194C8
:104040000126009600230A2211463148FEF728FE79
:1040500001940096002314220A212F48FEF720FE27
:104060004FF4FA60FCF710FC2046FFF769F9A94607
:104070001CE02A4E3046FDF7F2FC87B23046FDF7D1
:10408000EEFC1FFA80F83046FDF7E9FC84B23046BA
:10409000FDF7E5FC04F01F0283B25200C8F30801EB
:1040A000C7F30800FEF748FC09F1010940F6B733F1
:1040B0009945DED94FF47A70FCF7E6FB4FF6FF70B6
:1040C000FFF73EF90120FEF799FF4FF6FF740194C8
:1040D0000126009600230A2211460D48FEF7E0FD56
:1040E00001940096002314220A210D48FEF7D8FD02
:1040F0004FF4FA60FCF7C8FB2046FFF721F9A94608
:104100002CE000BF30A8000840A8000858A800080C
:1041100074A8000890A80008B0A80008680A002049
:10412000B8A80008C04C2046FDF799FC86B220468E
:10413000FDF795FC87B22046FDF791FC1FFA80F849
:104140002046FDF78CFC83B2C8F34302C7F3080195
:10415000C6F30800FEF76AFC09F10109B9F57A7F98
:10416000E0D34FF47A70FCF78FFB4FF6FF70FFF748
:10417000E7F80120FEF742FF4FF6FF740194012695
:10418000009600230A221146A848FEF789FD0194F3
:104190000096002314220A21A548FEF781FD4FF462
:1041A000FA60FCF771FB2046FFF7CAF8A8461EE04C
:1041B000DFF874924846FDF752FC84B24846FDF79A
:1041C0004EFC86B24846FDF74AFC87B24846FDF7EA
:1041D00046FC83B2C4F30800C6F3080107F01F02CF
:1041E00000938B180244FEF77DFC08F1010844F6A9
:1041F0001F639845DCD94FF47A70FCF745FB4FF606
:10420000FF70FFF79DF80120FEF7F8FE4FF6FF74F0
:1042100001940126009600230A2211468348FEF7E6
:104220003FFD01940096002314220A218148FEF7E5
:1042300037FD4FF4FA60FCF727FB2046FFF780F8C4
:10424000A9461DE0784E3046FDF709FC87B230469E
:10425000FDF705FC1FFA80F83046FDF700FC84B23C
:104260003046FDF7FCFB80B204F01F0200901346BD
:10427000C8F30801C7F30800FFF740F909F1010985
:1042800044F61F639945DDD94FF47A70FCF7FCFAC8
:104290004FF6FF70FFF754F80120FEF7AFFE4FF620
:1042A000FF7401940126009600230A2211466248F9
:1042B000FEF7F6FC01940096002314220A215F48C1
:1042C000FEF7EEFC4FF4FA60FCF7DEFA2046FFF74B
:1042D00037F800235A4A13805A4A13801AE0584A82
:1042E000138801331380564B1888B0F5A07F0AD28B
:1042F000544B1988EF2906D810F0010FEFD0002297
:10430000FFF738F8EBE74F4A1388013313804C4B23
:1043100000221A804B4B1B88EF2BE4D90023484A1C
:104320001380484A13801AE0454A138801331380EA
:10433000434B1888B0F5A07F0AD2424B1988EF2969
:1043400006D811F0010FEFD00022FFF713F8EBE7CA
:104350003C4A138801331380394B00221A80394BB1
:104360001B88EF2BE4D94FF4FA60FCF78DFA4FF677
:10437000FF70FEF7E5FF0120FEF740FE4FF6FF74E9
:1043800001940126009600230A2211462E48FEF7CA
:1043900087FC01940096002314220A212B48FEF783
:1043A0007FFC4FF4FA60FCF76FFA2046FEF7C8FF77
:1043B00013E01D4F3846FDF752FB84B23846FDF737
:1043C0004EFB86B23846FDF74AFB82B2C6F30801BF
:1043D000C4F30800FEF7CEFF01351D4B9D42E8D91E
:1043E0004FF4FA60FCF750FA4FF6FF70FEF7A8FFA3
:1043F0000120FEF703FE4FF6FF750195012400949E
:1044000000230A2211461348FEF74AFC0195009446
:10441000002314220A211048FEF742FC4FF4FA60F0
:10442000FCF732FA002430E0680A002074A8000883
:10443000C8A80008D4A80008E8A8000800A9000837
:10444000DC090020DE09002018A9000834A90008B2
:104450001FA1070044A9000854A90008574AA2FB5D
:104460000432D108CB029BB29208520192B213449B
:104470009BB20B449BB20093F02301225049098860
:104480002046FFF73BF80134A4B2B4F5A07FE5D98C
:104490004FF4FA60FCF7F8F94FF6FF70FEF750FFA3
:1044A0000120FEF7ABFD4FF6FF7401940125009546
:1044B00000230A2211464348FEF7F2FB01940095BF
:1044C000002314220A214048FEF7EAFB4FF4FA6069
:1044D000FCF7DAF902213D48FEF702FC0020FEF766
:1044E0008DFD41F28830FCF7CFF92046FEF728FF1A
:1044F0002846FEF783FD01940225009500230A2239
:1045000011463348FEF7CCFB0194009500231E2290
:104510000A213048FEF7C4FB0020FEF76FFD31E0B2
:10452000BDF80C50BDF80E4000230222214628465B
:10453000FEF77CFA0120FEF761FD2A4626490CA809
:1045400000F0B4FA4FF6FF77019702260096002399
:1045500050220A210CA8FEF7A3FB22461F490CA8F3
:1045600000F0A4FA01970096002378220A210CA8F3
:10457000FEF796FB0020FEF741FD0022214628466B
:10458000FEF7F8FE1420FCF77FF9FFF70FF968B18A
:1045900001224FF481411248FCF7E9FA03A8FFF722
:1045A00083F80128BCD000242546E6E700224FF41A
:1045B00081410B48FCF7DBFAE4E700BFCDCCCCCC63
:1045C000DC09002060A900086CA90008A8A900085F
:1045D00074A9000880A9000890A900089CA90008F7
:1045E0000004024008B50548054B0360FDF7EEF9ED
:1045F00000B908BDFFF73EFAFBE700BF680A0020DC
:10460000000806500268084B9A4200D0704782B0FA
:10461000064B5A6B42F040025A635B6B03F0400357
:104620000193019B02B07047000806500038024019
:1046300008B50F480F4B03604FF4827343600023AB
:1046400083604FF4E062C260036143614FF4007223
:104650008261C3610362436283620722C2620363B1
:104660004363FDF7D9FA00B908BDFFF703FAFBE78A
:10467000780A00200050014000B589B00023039360
:1046800004930593069307930268154B9A4202D050
:1046900009B05DF804FB03F568435A6C42F48012DC
:1046A0005A645A6C02F480120192019A1A6B42F019
:1046B00020021A631B6B03F020030293029B4FF44A
:1046C000607303930223049300230593032306934B
:1046D0000523079303A90348FCF752F9D8E700BF65
:1046E000005001400014024082B00A4B1A6C42F0A4
:1046F00080521A641A6C02F080520092009A5A6C2E
:1047000042F480425A645B6C03F480430193019B42
:1047100002B070470038024008B5FCF7A3F808BDA6
:1047200008B50248FDF730FC08BD00BF1C0B002097
:1047300010B40F4AD2F8883043F47003C2F88830BE
:104740000C4B196841F001011960002098601C6849
:1047500009492140196009495960196821F48021EB
:104760001960D8604FF0006393605DF8044B7047A8
:1047700000ED00E000380240FFFFF6FE103000249C
:1047800000B589B000230493059306930793019322
:10479000029303931648174A026042F21072426075
:1047A0008360C3604FF48072026143618361FDF7EF
:1047B0003FFD98B94FF48053049304A90C48FDF7CA
:1047C0005DFD70B9002301930293039301A908488A
:1047D000FDF7C2FD40B909B05DF804FBFFF74AF9E7
:1047E000E8E7FFF747F9EDE7FFF744F9F3E700BF24
:1047F000DC0A00200000014000B589B000230493CA
:1048000005930693079301930293039315484FF082
:10481000804202606B224260836040F2E732C260F5
:1048200003618361FDF704FD90B94FF48053049355
:1048300004A90C48FDF722FD68B9002301930393F6
:1048400001A90848FDF788FD40B909B05DF804FBEF
:10485000FFF710F9E9E7FFF70DF9EEE7FFF70AF9BF
:10486000F3E700BF1C0B002000B583B00368144AB7
:10487000934205D0B3F1804F0DD003B05DF804FB37
:10488000104B5A6C42F001025A645B6C03F0010356
:104890000093009BF1E703F50E331A6C42F001021E
:1048A0001A641B6C03F001030193019B0022012198
:1048B0001C20FCF70FF81C20FCF73EF8DDE700BFDA
:1048C000000001400038024008B50B480B4B036064
:1048D0004FF4E133436000238360C36003610C2223
:1048E00042618361C36103624362FDF7F4FF00B973
:1048F00008BDFFF7BFF8FBE75C0B00200048004055
:1049000000B589B00023039304930593069307939E
:104910000268154B9A4202D009B05DF804FB03F51A
:10492000F8331A6C42F480221A641A6C02F4802262
:104930000192019A1A6B42F008021A631B6B03F092
:1049400008030293029B4FF44073039302230493E2
:1049500000230593032306930723079303A9034822
:10496000FCF70EF8D8E700BF00480040000C0240FA
:10497000DFF834D0002103E00C4B5B584350043186
:104980000B480C4B42189A42F6D30B4A02E0002324
:1049900042F8043B094B9A42F9D3FFF7C9FE00F0F5
:1049A00011F8FFF7D5F8704700000820CC05030880
:1049B00000000020C0090020C0090020040C0020D5
:1049C000FEE7000070B50D4E0D4D761BB61006D0FB
:1049D000002455F8043B01349847A642F9D1094E0A
:1049E000094D761B05F0AAFDB61006D0002455F837
:1049F000043B01349847A642F9D170BDC0050308B5
:104A0000C0050308C8050308C0050308F0B48607FD
:104A100046D0541E002A3CD0CAB2034601E0013CF5
:104A200037D303F8012B9D07F9D1032C2AD9CDB236
:104A300045EA05250F2C45EA054534D9A4F11002B5
:104A400022F00F0C03F120071609674403F110024E
:104A500042E9045542E902551032BA42F8D1721CBB
:104A600014F00C0F03EB021204F00F0613D0331FE7
:104A700023F003030433134442F8045B9342FBD155
:104A800006F003042CB1CAB21C4403F8012B9C426B
:104A9000FBD1F0BC704734461346002CF3D1F8E745
:104AA00014460346C1E71A462646E0E70EB430B581
:104AB0009CB01FAB0C4C0D4D53F8042B01930146D9
:104AC00002910691206802A96FF00044CDE90445E7
:104AD000079400F00DF8029B00221A701CB0BDE88C
:104AE000304003B0704700BF100000200802FFFFF5
:104AF0002DE9F04F2DED068BCDB08A4690460993F7
:104B0000834602F009FD036812931846FBF798FBF1
:104B1000BAF80C3011901D0604D5DAF81030002BCD
:104B200000F05C8700234646CDE92133CDE91433FC
:104B3000CDE916330F931393069323AB2093994635
:104B400033789FED778B9FED789B002B00F073817E
:104B5000344604E014F8013F002B00F0A980252B17
:104B6000F8D1A51B40F0A7802378002B00F06381CB
:104B7000002307938DF8633003934FF0FF32631CDB
:104B8000677805922B254FF020081C460134A7F1C9
:104B900020035A2B00F2CC80DFE813F0C102CA00D8
:104BA000CA00BB02CA00CA00CA006A00CA00CA0022
:104BB000E8016802CA00F301A102CA009B025B007F
:104BC0005B005B005B005B005B005B005B005B000D
:104BD000CA00CA00CA00CA00CA00CA00CA005901F5
:104BE000CA008901FF01590159015901CA00CA00CF
:104BF000CA00CA00F901CA00CA007502CA00CA0088
:104C0000CA009701CA008A02CA00CA000207CA0085
:104C1000CA00CA00CA00CA00CA00CA00CA005901B4
:104C2000CA008901BF015901590159015F02BF0141
:104C30008400CA006C02CA004702D406180284002D
:104C4000CA0097018200D706CA00CA00E006CA005F
:104C50008200A7F13003002214F8017B02EB8202EC
:104C600003EB4202A7F13003092BF5D907928EE737
:104C7000584602F051FC436816931846FBF7E0FAD9
:104C8000034658461F46179302F046FC826814926A
:104C900037B1149B23B1149B1B78002B41F0F0809B
:104CA000277873E7039B277843F0200303936DE78E
:104CB000A51B00F0C080DDE9213201332A44072B17
:104CC000CDE92132C9F80060C9F8045006DC09F1C9
:104CD0000809069A23782A44069246E720AA5146F4
:104CE000584603F0F3FA48B90DF18C09F1E78A460A
:104CF000089B1BB10899584602F00AFBBAF80C3021
:104D000013F0400F069B18BF4FF0FF330693069831
:104D10004DB0BDEC068BBDE8F08F00BFAFF3008057
:104D20000000000000000000FFFFFFFFFFFFEF7F1B
:104D30000C94002F7FD000230125194604958DF88F
:104D4000CC708DF86330089105910D9110910E9102
:104D500033AE039B13F002030A9302D0049B023389
:104D60000493039B13F084030B9305D1079B049AD0
:104D70009C1A002C00F34183229A71B121990131D0
:104D800001320DF1630401200729CDE92112C9E99F
:104D9000004000F3808309F108090A9B6BB1219B55
:104DA0000133023219A80221072BCDE92132C9E9CA
:104DB000000100F37C8309F108090B9B802B00F0B4
:104DC0005882059B5C1B002C00F38F82039BDB0544
:104DD00000F1FA81219BC9F8006001332A44072BB6
:104DE0002292C9F80450219300F3FB8209F10809CB
:104DF000039B590705D5079B04995C1A002C00F307
:104E00006283DDE9063104988142ACBF5B181B1850
:104E10000693002A40F09B8200232193089B1BB13C
:104E20000899584602F074FA0DF18C090C9E3378FB
:104E3000002B7FF48DAE229B002B3FF45FAF5846D2
:104E400020AA514603F042FABAF80C3058E7099B01
:104E50000C94073323F00703B3EC028BB0EEC87B4E
:104E6000B4EE497BF1EE10FA099340F39184B5EE6C
:104E7000C08BF1EE10FA00F1DD879DF86310AC4EA7
:104E8000AC4B03980022032520F080000495089283
:104E90000390472FC8BF1E4605920D9210920E92A6
:104EA00000293FF456AF049B0133049351E7099B5B
:104EB0000C9453F8041B8DF8CC10002201251146E8
:104EC000049509938DF863203DE70C94099C54F8F0
:104ED000046B4FF000088DF86380002E00F08E8583
:104EE000059A1346013300F0338741463046FBF7FD
:104EF00017FA0890002801F0A480089BCDF81480D0
:104F00009D1B434625EAE5729DF8631009940492BF
:104F100008930D9310930E93C2E7039B0C949C0689
:104F200043D5099B073323F007031946F1E8022311
:104F3000099114461D46002A73F10003C0F2F9835B
:104F4000059B013300F09782039B23F0800854EA0D
:104F5000050340F09282059B002B40F09382CDF830
:104F60000C80002305931D464CAE02E1099B53F8CB
:104F7000042B0792002A80F20584079A0993524273
:104F80000792039B277843F004030393FEE5039BFA
:104F9000277843F008030393F8E5039B0C9443F050
:104FA00010030393039B9C06BBD4039BD80600F11C
:104FB000B984039B590640F10987099B53F8044BB8
:104FC000099324B2E51722462B46B4E7099B0C94BB
:104FD00047F6300253F8044BADF86420039A099366
:104FE000554B139342F00208002502237827002234
:104FF0008DF86320059A1146013100F0A18028F058
:105000008001039154EA050140F09880002A40F0A5
:105010008586002BA5D118F0010500F0B783302359
:105020008DF82F310DF22F16A3E0039B0C949D06F3
:1050300000F16C84039BDC0600F17786039B580625
:1050400000F12E87039B990540F16F86099B069915
:1050500053F8042B09931170E8E62778039B682F17
:1050600000F0B58443F0400303938FE527788DF873
:1050700063508BE52778039B6C2F00F0A18443F0ED
:105080001003039382E5039B0C9443F010030393F6
:10509000039B9A0640F13E83099B073323F00703E5
:1050A000F3E802450993039B23F4806800239EE7FD
:1050B000039B0C9443F0100818F0200F00F01583A8
:1050C000099B073323F00703F3E802450993012303
:1050D0008DE7039B277843F08003039356E5224630
:1050E00012F8017B2A2F01F06181A7F13003092B0F
:1050F000144698BF002201F25C8014F8017B02EB99
:10510000820203EB4202A7F13003092BF5D9059285
:105110003DE5039B277843F00103039336E59DF8B3
:105120006330002B7FF4BCAD27788DF863802DE5CC
:10513000C4010308C8010308D4010308DDF80C808A
:10514000012B00F09A81022B4CAE1FD1139823093A
:1051500004F00F0143EA05732A091C461546435C17
:1051600006F8013D54EA0503F1D14CABCDF80C80B3
:105170009D1B002308930D9310930E93059B9DF8A0
:105180006310AB42B8BF2B46049389E6E20842EABB
:105190004572E90804F007030D461446303354EA1B
:1051A0000501324606F8013DF0D118F0010FDCD0C0
:1051B000302BDAD03023023A06F8013C4CABCDF864
:1051C0000C809D1A1646D4E7652F40F3C980B5EED2
:1051D000408BF1EE10FA40F0B781219BBE49C9F82F
:1051E0000010013301320121072BCDE92132C9F82A
:1051F000041000F35E8509F108091A9B0F998B4290
:1052000080F2BB82219B1299C9F800101199C9F84C
:10521000041001330A44072B2292219300F3C48324
:1052200009F108090F9B5C1E002C7FF7E1AD102CE3
:10523000219B40F34B85102505E009F10809103C3E
:10524000102C40F343850133A4491032072BCDE9DC
:105250002132C9E90015F0DD20AA5146584603F075
:1052600035F800287FF444ADDDE921320DF18C09D9
:10527000E5E7079B04995C1A002C7FF7A2AD102C80
:10528000219B1FDD4FF0100804E0103C102C09F1A9
:10529000080917DD013391491032072BCDE921327E
:1052A000C9E90018F1DD20AA5146584603F00EF86E
:1052B00000287FF41DAD103C102CDDE921320DF1EA
:1052C0008C09E7DC01338549C9F800102244072B1B
:1052D000CDE92132C9F8044000F31385059B5C1B1E
:1052E000002C09F108097FF771AD102C219B1FDDFF
:1052F0004FF0100804E0103C102C09F1080917DDEC
:10530000013376491032072BCDE92132C9E9001863
:10531000F1DD20AA5146584602F0D8FF00287FF45C
:10532000E7AC103C102CDDE921320DF18C09E7DCF3
:1053300001336A49C9F800102244072BCDE9213214
:10534000C9F8044000F3C48109F108093EE520AA28
:105350005146584602F0BAFF00283FF45DADC7E45D
:105360000F9B012B40F37181219BC9F80060013331
:1053700001320121072BCDE92132C9F8041000F3D5
:10538000E28109F108091199129801330A44072BA7
:10539000CDE92132C9E9000100F3E28109F10809F0
:1053A000B5EE408BF1EE10FA0F9900F06C810139E7
:1053B000013301360A44072BCDE92132C9F80060D8
:1053C000C9F8041000F3528109F108091598013356
:1053D00002441CA9072BCDE92132C9E900107FF74F
:1053E00005AD20AA5146584602F070FF00287FF410
:1053F0007FAC229A0DF18C09FAE4102CDDE9211220
:10540000DFF8DC8027DD084641461023A8460D461C
:1054100004E0103C102C09F1080918DD01301032AD
:105420000728CDE92102C9E90053F2DD20AA51463F
:10543000584602F04BFF00287FF45AAC103C102C69
:10544000DDE921020DF18C094FF01003E6DC2B465B
:10545000014645469846013122440729CDE92112EB
:10546000C9F80080C9F8044000F3CB839DF86310AD
:1054700009F1080981E4DDF80C80002D08BF0A2C31
:1054800080F0818330348DF82F41CDF80C800125D8
:105490000DF22F166DE620AA5146584602F016FF6F
:1054A00000287FF425AC229A0DF18C0975E420AA1E
:1054B0005146584602F00AFF00287FF419AC229AA0
:1054C0000DF18C0979E4102C219BDFF8148026DD86
:1054D000102546460BE000BF04020308180203082B
:1054E00008020308103C102C09F1080916DD0133ED
:1054F0001032072BCDE92132C9E90065F2DD20AA7F
:105500005146584602F0E2FE00287FF4F1AB103C11
:10551000102CDDE921320DF18C09E8DCB0460133B5
:105520002244072BCDE92132C9F80080C9F8044094
:105530007FF767AC20AA5146584602F0C7FE002804
:105540007FF4D6AB229A5CE41A99002940F3708369
:10555000DDE90E318B42A8BF0B46002B1C460DDD4A
:10556000219BC9F8006001332244072B2292C9F81D
:105570000440219300F3128509F108090E9B002CC9
:10558000A8BF1B1B002B1C4600F347820E9B334415
:105590001F46039B5D0500F162821A9B0F998B42A7
:1055A00003DB0399CC0740F1728421991298C9F862
:1055B00000001198C9F80400013102440729229221
:1055C000219100F3F88409F108090F997418E41B7C
:1055D000CB1A9C42A8BF1C46002C0DDD2199C9F8AE
:1055E00000700131224407292292C9F80440219118
:1055F00000F3CF8509F10809002CACBF1C1B1C4629
:10560000002C7FF7F5AB102C219B40F35F83102516
:1056100005E009F10809103C102C40F357830133D1
:10562000CC491032072BCDE92132C9E90015F0DD54
:1056300020AA5146584602F049FE00287FF458AB94
:10564000DDE921320DF18C09E5E7039BD8073FF531
:105650008BAE219BC9F80060013301320121072B79
:10566000CDE92132C9F804107FF7AEAE20AA514629
:10567000584602F02BFE00287FF43AABDDE92132D8
:105680000DF18C09A2E64C1E002C7FF79FAE102C6A
:1056900040F35383102505E009F10809103C102C54
:1056A00040F34B830133AB491032072BCDE9213254
:1056B000C9E90015F0DD20AA5146584602F006FE61
:1056C00000287FF415ABDDE921320DF18C09E5E707
:1056D00020AA5146584602F0F9FD00287FF408AB95
:1056E000229A0DF18C09FFF771BB099A18F0100F7F
:1056F00052F8044B09924FF0010309D118F0400F02
:1057000002D0A4B2002572E418F4007F18BFE4B2FE
:1057100000256CE4039BDB0600F10D81039B5E0614
:1057200040F16283099B53F8044B0993A4B200250E
:10573000B9E42D2364428DF86330DDF80C8065EB0D
:105740004505012356E420AA5146584602F0BEFD05
:1057500000287FF4CDAADDE921320DF18C0912E693
:1057600020AA5146584602F0B1FD00287FF4C0AA95
:10577000DDE921320DF18C0912E6039BDE077FF58E
:1057800037AB3FE527780993FFF700BA4CAEF0E45A
:10579000B4EE488BF1EE10FA80F19085612F00F0A5
:1057A0003985412F00F07784059B27F020045A1C8F
:1057B000254600F09883472C00F04885039B43F46E
:1057C0008073049318EE903A002BC0F2DB84B0EEA5
:1057D00048AB4FF00008CDF82080462C00F0128432
:1057E000452C40F0F683B0EE4A0B059B1EA8591CD1
:1057F0001BABCDE900300C460A461AAB02215846D5
:1058000000F0A2FE06460119DDE903C30393B5EEDD
:1058100040ABF1EE10FA40F0A4830B469B1B0F93B4
:10582000472D00F06E83462D00F017841A9B0E93CF
:105830000E9B412D03F1FF331A9300F02785FAB236
:105840000021002BB8BF0E9B8DF87020BABFC3F1AA
:1058500001032D222B22092B8DF8712040F33C856A
:105860000DF17F0E3C4D07EE90AA744685FB032197
:10587000DA17C2EBA10202EB8201A3EB41019A46C7
:105880003031BAF1630F204604F8011C134604F1CD
:10589000FF34EBDC3033821EDBB2964517EE90AA64
:1058A000214604F8013C40F28C850DF1720201E0C2
:1058B00011F8013B02F8013B8E45F9D10DF181034E
:1058C0000DF172021B1A13441CAA9B1A15930F9B0D
:1058D000159A012B02EB030540F34C85119B1D44E7
:1058E00000232CF4806C0D934CF4807210930E9373
:1058F00025EAE57303920493B8F1000F40F02A8380
:105900009DF86310CDF81480FFF7CABA099B53F8CD
:10591000041B0993069BDD171A462B46C1E9002399
:10592000FFF784BA099B53F8044B0993E517224605
:105930002B46FFF700BB099B53F8044B0993002546
:10594000FFF7B1BB0C94FFF7A3BBDDF80C800C9400
:10595000FFF7B2BB1802030867666666B04B0C948B
:105960001393039B9D0640F1F880099B073323F0B6
:105970000703F3E802450993039AD1070AD554EACD
:10598000050307D0302342F002028DF865700392C0
:105990008DF86430039B23F480680223FFF727BB54
:1059A000A04B0C941393DCE720AA5146584602F012
:1059B0008DFC00287FF49CA9229A0DF18C0931E41A
:1059C00043F02003677803930134FFF7DFB843F413
:1059D0000073677803930134FFF7D8B84021584625
:1059E00001F0A6FDCAF80000CAF81000002800F077
:1059F000F0844023CAF81430FFF794B8059D0D9643
:105A0000062D28BF0625059610960E960896314657
:105A10000495854E0994FFF743BA102C219B40F35F
:105A2000FA81102505E009F10809103C102C40F31B
:105A3000F28101337D491032072BCDE92132C9E9CA
:105A40000015F0DD20AA5146584602F03FFC002820
:105A50007FF44EA9DDE921320DF18C09E5E70F9BBA
:105A6000149D0A964846DDF8409006EB030851461F
:105A70000D9BC246DDF85C80B9F1000F2FD0002BE2
:105A800030D1013D09F1FF39219B169C046001339F
:105A90004244072B2292C0F80480219367DC08302F
:105AA0002B78AAEB07049C42A8BF1C46002C0BDDF8
:105AB000219B076001332244072B229244602193EB
:105AC00000F312812B780830002CACBF1C1B1C4645
:105AD000002C0BDC1F440D9BB9F1000FCFD1002B24
