:020000040800F2
:10000000301B00200D0200089D35000861300008FB
:10001000653500089904000801420008000000004E
:10002000000000000000000000000000B9360008D9
:10003000C7050008000000009F350008BB36000817
:1000400027020008270200082702000827020008EC
:1000500027020008270200082702000827020008DC
:1000600027020008270200082702000827020008CC
:1000700027020008270200082702000827020008BC
:1000800027020008270200081903000827020008B9
:10009000270200082702000827020008270200089C
:1000A000270200082702000827020008270200088C
:1000B0002702000809380008270200082702000864
:1000C000270200082702000827020008270200086C
:1000D000270200082702000827020008270200085C
:1000E000270200082702000827020008270200084C
:1000F000270200082702000827020008270200083C
:10010000270200082702000827020008270200082B
:10011000270200082702000827020008270200081B
:100120009D040008AD04000827020008270200080B
:1001300027020008270200082702000827020008FB
:1001400027020008270200082702000827020008EB
:1001500027020008270200082702000827020008DB
:1001600027020008270200082702000827020008CB
:1001700027020008270200082702000800000000EC
:1001800027020008270200082702000827020008AB
:10019000270200082702000827020008270200089B
:1001A000270200082702000827020008270200088B
:1001B000270200082702000827020008270200087B
:1001C000270200082702000800000000270200089C
:1001D000270200082702000827020008270200085B
:1001E000270200082702000827020008270200084B
:1001F0002702000827020008DFF80CD000F07AF888
:10020000004800478D430008301B00200648804707
:1002100006480047FEE7FEE7FEE7FEE7FEE7FEE7EB
:10022000FEE7FEE7FEE7FEE7A5370008F901000854
:100230002DE9F05F0546002092469B46884606461B
:10024000814640241BE0284641464746224600F0AE
:1002500041F853465A46C01A914110D311461846E8
:10026000224600F028F82D1A67EB01084F46224677
:100270000120002100F01FF817EB00094E41201E5D
:10028000A4F10104DFDC484631462A464346BDE876
:10029000F09FD2B201E000F8012B491EFBD270475B
:1002A0000022F6E710B513460A4604461946FFF742
:1002B000F0FF204610BD202A04DB203A00FA02F1AC
:1002C000002070479140C2F1200320FA03F3194344
:1002D00090407047202A04DB203A21FA02F00021E6
:1002E000704721FA02F3D040C2F120029140084346
:1002F00019467047064C074D06E0E06840F00103E0
:1003000094E8070098471034AC42F6D3FFF778FF23
:10031000104400083044000810B5024800F032FADA
:1003200010BD0000241400205849096821F4403110
:10033000574AC2F804131146D1F804134268114316
:10034000524A11600168496821F480710268516065
:1003500001684A68016942EA012102685160016846
:10036000496821F0407102685160016849688268FB
:100370001143026851600168896821F400610268D4
:10038000916001688968C268114302689160414ABE
:10039000816A914218D00168896821F07061026811
:1003A000916001688968826A1143026891600168FE
:1003B000896821F040510268916001688968C26AC9
:1003C0001143026891600BE00168896821F0706157
:1003D000026891600168896821F04051026891606B
:1003E0000168896821F002010268916001688A68E9
:1003F000816942EA4101026891602021095CA1B152
:100400000168496841F40061026851600168496807
:1004100021F460410268516001684A68416A491EDE
:1004200042EA41310268516005E00168496821F4FF
:100430000061026851600168C96A21F470010268B4
:10044000D1620168CA6A818B491E42EA0151026881
:10045000D1620168896821F40071026891600168C5
:100460008A6890F8301042EA412102689160016880
:10047000896821F480610268916001688A68416935
:1004800042EA812102689160704700000423014024
:10049000002001400100000F00BFFEE710B5024838
:1004A00000F06CFB10BD00006C14002010B5024879
:1004B00000F064FB10BD00004C16002001460878D7
:1004C00010381823B0FBF3F20848805CC865032A93
:1004D00005D908686FF30900001D886503E0086806
:1004E0006FF309008865886D70470000F0430008CD
:1004F000014600208A6A8B69CBB932B1012A0DD03E
:10050000022A03D0032A10D10EE000BFCB6A03F009
:100510008073B3F1807F00D1012007E0CB6AB3F193
:10052000C07F00D1012001E000E000BF34E08B6912
:10053000B3F5005F1AD132B1012A07D0022A03D0E5
:10054000032A11D10AE000BF01200EE0CB6A03F0BC
:100550008073B3F1807F00D1012006E0CB6AB3F154
:10056000C07F00D1012000E000BF15E032B1012AB8
:1005700005D0022A04D0032A0CD103E000BF00BF3B
:10058000012008E0CB6A03F08073B3F1807F00D1D3
:10059000012000E000BF00BF704730B50468246848
:1005A00024F4802405682C60046863608468402C0F
:1005B00004D10468A2600468E16003E00468A160FB
:1005C0000468E26030BD70477047704718B5024656
:1005D0000020009000BF92F83C00012801D10220C9
:1005E00018BD012082F83C0000BF0868092822D904
:1005F0001068C0680B780A3B03EB43040723A34051
:1006000098431368D860594B0868984207D110681E
:10061000C0680B7A40EA03601368D8601FE00B786B
:100620000A3B03EB4303886898401368DB68184370
:100630001368D86013E0106800690B7803EB43047B
:100640000723A3409843136818610B7803EB430317
:100650008868984013681B691843136818614868D4
:10066000072817D21068406B0B795B1E03EB8304DD
:100670001F23A340984313685863088880B20B79FE
:100680005B1E03EB8303984013685B6B184313688E
:10069000586331E048680D2817D21068006B0B7959
:1006A000DB1F03EB83041F23A340984313681863E5
:1006B000088880B20B79DB1F03EB83039840136833
:1006C0001B6B18431368186316E01068C06A0B7937
:1006D0000D3B03EB83041F23A34098431368D862A8
:1006E000088880B20B790D3B03EB830398401368B5
:1006F000DB6A18431368D8621D4B1068984208D112
:100700000868122805D11B48006840F48000C3F82F
:100710000403174B1068984220D1144B0868984284
:1007200002D00868112819D11248006840F400006E
:10073000104B18600D4B086898420FD10E480068A6
:100740000E4BB0FBF3F000EB80004000009002E0A5
:100750000098401E009000980028F9D100BF0020AA
:1007600082F83C0000BF00BF3AE700001200001012
:1007700000200140042301405000002040420F00AF
:100780007047704770B50446002500262068006851
:10079000C0F3400520684068C0F3401695B38EB39F
:1007A000206C00F0100018B9206C40F40070206438
:1007B0002068806800F04050E8B9A069D8B9206886
:1007C000C06A00F4700020B12068806800F4806086
:1007D00088B92068406820F0200021684860206CBB
:1007E00020F480702064206C00F4805018B9206CD4
:1007F00040F0010020642046FFF7C2FF6FF01200B6
:100800002168086020680068C0F38005206840689F
:10081000C0F3C016E5B3DEB3206C00F0100018B9C9
:10082000206C40F4005020642068806800F4401080
:1008300038BB2068806B00F4401020B120688068CD
:1008400000F48060E8B92068406800F48060C0B9B6
:100850002068806800F0405098B9A06988B9206885
:10086000406820F0800021684860206C20F48050AF
:100870002064206C00F4807018B9206C40F00100F6
:1008800020642046FFF7A1FE6FF00C00216808608D
:100890002068006800F0010520684068C0F38016F9
:1008A00085B17EB12068006800F0010050B1206C75
:1008B00040F480302064204600F052F86FF00100D0
:1008C0002168086020680068C0F34015206840680F
:1008D000C0F380667DB176B1606C40F00200606468
:1008E0006FF02000216808602046FFF74AFF6FF094
:1008F00020002168086070BD70B5044600250CB961
:10090000012070BD1549A06A884200D000BF206C4C
:1009100030B9204600F026F80020606484F83C00DE
:10092000206C00F0100088B9206C20F4885040F052
:10093000020020642046FFF7F7FC00206064206C72
:1009400020F0020040F00100206400E0012500BF1B
:10095000002084F83C0000BF2846D2E70100000FC9
:100960007047000010B586B00446142101A8FFF7B7
:1009700097FC2D492068884254D100BF2B4800685D
:1009800040F48070294908600846006800F48070CF
:10099000009000BF00BF00BF24481438006840F03A
:1009A00001002249143908600846006800F001007F
:1009B000009000BF00BF4020019003200290002063
:1009C000039001A91A4800F0BFFA1A481A490860B2
:1009D00000204860002118488160C1604FF48061A8
:1009E000016189004161890081618911C161002132
:1009F000016204214162032181620021C16201631D
:100A000000F0DCF908B1FFF7DFFD00BF0A48A06382
:100A1000846300BF00220321122000F033FD122066
:100A200000F020FD06B010BD002001404438024017
:100A300000000240106402406C14002008B501461A
:100A40000020009000BF91F83C00012801D1022055
:100A500008BD012081F83C0000BF0868806800F0F4
:100A60000100A0B90868806840F001000A68906041
:100A70003C4800683C4AB0FBF2F000EB40000090BC
:100A800002E00098401E009000980028F9D1086804
:100A9000806800F00100002861D0086C40F201621B
:100AA000904340F4807008640868406800F48060F7
:100AB00028B1086C20F4005040F480500864086CA1
:100AC00000F48050B0F5805F04D1486C20F006003F
:100AD000486401E00020486400BF002081F83C0029
:100AE00000BF6FF022000A681060086840681F4A63
:100AF00010430A6850601E48006800F01F0058B993
:100B00000868806800F0405048BB0868806840F082
:100B100080400A68906022E0164A086890420AD134
:100B20000868806800F0405028B90868806840F084
:100B300080400A6890600E48006800F0100070B9AC
:100B40000D4A086890420AD10868806800F0405059
:100B500028B90868806840F080400A6890600020EA
:100B600076E700005000002040420F002000000403
:100B7000042301400020014000220140F8B5044652
:100B8000002000908C4800684FF41651B0FBF1F73C
:100B9000A56D2E6894F85C1008208840304098B10C
:100BA0002068006800F0040070B12068006820F040
:100BB00004002168086094F85C1008208840A86050
:100BC000606D40F00100606594F85C100120884081
:100BD000304068B12068406900F0800040B194F86E
:100BE0005C1001208840A860606D40F002006065E4
:100BF00094F85C1004208840304068B12068006898
:100C000000F0020040B194F85C1004208840A86015
:100C1000606D40F00400606594F85C10102088401E
:100C2000304078B32068006800F0080050B394F8B2
:100C30005C1010208840A8602068006800F48020C4
:100C400080B12068006800F4002028B9206CC8B189
:100C50002046216C884715E0A06C98B12046A16C15
:100C600088470FE02068006800F4807028B9206889
:100C7000006820F0080021680860206C10B1204650
:100C8000216C884794F85C10202088403040002870
:100C900065D02068006800F0100000285FD094F84C
:100CA0005C1020208840A86094F83500052828D1E1
:100CB0002068006820F016002168086020684069FC
:100CC00020F0800021684861206C08B9A06C28B130
:100CD0002068006820F008002168086094F85C1023
:100CE0003F208840A86000BF002084F8340000BF87
:100CF000012084F83500206D10B12046216D884711
:100D0000F8BD2068006800F4802080B12068006889
:100D100000F4002028B9606C10B12046616C88474F
:100D20001DE0E06BD8B12046E16B884717E02068F2
:100D3000006800F4807068B92068006820F0100036
:100D40002168086000BF002084F8340000BF012043
:100D500084F83500E06B10B12046E16B8847606D88
:100D600038B3606D00F00100F0B1052084F8350063
:100D70002068006820F001002168086000BF00982A
:100D8000401C0090B84200D905E02068006800F0DF
:100D900001000028F3D100BF00BF002084F8340018
:100DA00000BF012084F83500E06C10B12046E16CF2
:100DB000884700BFA4E70000500000202DE9F04163
:100DC0000446002500F0D2F9074614B90120BDE819
:100DD000F081606A00B100BF00BF002084F83400D9
:100DE00000BF022084F835002068006820F0010070
:100DF000216808600AE000F0B9F9C01B052805D990
:100E000020206065032084F83500E0E72068006852
:100E100000F001000028EED1206805682148054057
:100E2000D4E901010843E168084321690843616985
:100E30000843A1690843E1690843216A084305435F
:100E4000606A042803D1D4E90B01084305432068F4
:100E500005602068456925F00705606A0543606AFA
:100E600004280DD1A06A0543E06A48B12046FFF787
:100E70003FFB28B140206065012084F83500A6E7DB
:100E8000206845612046FFF719FB064694F85C1080
:100E90003F208840B06000206065012084F8350064
:100EA000002094E73F8010E02DE9F04704460D460E
:100EB00016461F464FF00008D4F8589000BF94F82B
:100EC0003400012802D10220BDE8F087012084F817
:100ED000340000BF94F8350001282BD1022084F89B
:100EE0003500002060653B46324629462046FFF724
:100EF00054FB94F85C103F208840C9F80800206833
:100F0000006840F01600216808602068406940F0E1
:100F1000800021684861206C28B12068006840F09A
:100F20000800216808602068006840F0010021681E
:100F3000086006E000BF002084F8340000BF4FF0D6
:100F400002084046C0E70000F8B502460B46002103
:100F500000250024002000BFE4E0012606FA01F588
:100F60001E6806EA0504AC4271D15E68022E02D00A
:100F70005E68122E13D1CF0802F1200656F8270022
:100F80004E07F70E0F26BE40B0434F07FF0E1E69F7
:100F9000BE403043CF0802F1200646F82700106813
:100FA0004F000326BE40B0431E7906F003064F00F3
:100FB000BE40304310605E68012E08D05E68022E8D
:100FC00005D05E68112E02D05E68122E13D1906893
:100FD0004F000326BE40B0434F00DE68BE403043A2
:100FE0009060506801268E40B0431E79C6F300160B
:100FF0008E4030435060D0684F000326BE40B0435F
:101000004F009E68BE403043D0605E6806F0805658
:10101000B6F1805FA8D100BF444E366846F48046E2
:10102000424F3E603E46366806F48046009600BF5A
:1010300000BF3F4E8F0856F827008E07370F0F2648
:10104000BE40B0433B4EB24202D100262EE068E0E3
:10105000394EB24201D1012628E0384EB24201D1C8
:10106000022623E0364EB24201D103261EE0354E61
:10107000B24201D1042619E0334EB24201D1052615
:1010800014E0324EB24201D106260FE0304EB24299
:1010900001D107260AE02F4EB24201D1082605E011
:1010A0002D4EB24201D1092600E00A268F073F0FDC
:1010B000BE4030431E4E8F0846F82700274E30684A
:1010C000A0435E6806F48036B6F5803F00D1204329
:1010D000224E3060361D3068A0435E6806F400364C
:1010E000B6F5003F00D120431C4E361D3060361D42
:1010F0003068A0435E6806F48016B6F5801F00D104
:101100002043164E08363060361D3068A0435E68B6
:1011100006F40016B6F5001F00D120430F4E0C3622
:101120003060491C1029FFF418AFF8BD4438024064
:10113000083801400000024000040240000802405C
:10114000000C02400010024000140240001802404F
:10115000001C02400020024000240240003C0140EC
:101160000AB1816101E00B048361704701480068A6
:101170007047000044000020024692F841002028F9
:101180002DD100BF92F84000012801D10220704704
:10119000012082F8400000BF242082F8410010683E
:1011A000006820F00100136818601068006820F4DF
:1011B000805013681860106800680843136818604E
:1011C0001068006840F0010013681860202082F861
:1011D000410000BF002082F8400000BFD7E7022096
:1011E000D5E710B502460B4692F8410020282AD1D7
:1011F00000BF92F84000012801D1022010BD01205B
:1012000082F8400000BF242082F841001068006886
:1012100020F00100146820601068016821F47061FA
:1012200041EA0321106801601068006840F0010085
:1012300014682060202082F8410000BF002082F85E
:10124000400000BFDAE70220D8E7000010B50446EE
:101250000CB9012010BD94F8410028B9002084F891
:101260004000204600F054F8242084F84100206813
:10127000006820F0010021680860606820F070605C
:10128000216808612068806820F400402168886037
:10129000E068012805D1A06840F40040216888601A
:1012A00004E0A06840F4044021688860E0680228F7
:1012B00002D18002216848602068406813490843D1
:1012C000216848602068C06820F400402168C86038
:1012D000D4E904010843A16940EA01202168C860FB
:1012E000D4E907010843216808602068006840F0DD
:1012F00001002168086000206064202084F841001B
:101300000020206384F8420000BFA3E700800002B1
:1013100010B586B00446142101A8FEF7C1FF194993
:10132000206888422CD100BF1748006840F00200B6
:10133000154908600846006800F00200009000BFF0
:1013400000BF4FF4407001901220029001200390E2
:10135000032004900420059001A90C48FFF7F4FD38
:1013600000BF09481030006840F4001006491031F1
:1013700008600846006800F40010009000BF00BF3D
:1013800006B010BD00540040303802400004024056
:101390000348006803490978084401490860704718
:1013A000440000204C00002010B50A48006840F4BA
:1013B0000070084908600846006840F480700860C2
:1013C000032000F09DF8002000F006F800F02AF855
:1013D000002010BD003C024070B504460E48007865
:1013E0004FF47A71B1FBF0F00C490968B1FBF0F5EC
:1013F000284601F011F908B1012070BD102C07D268
:1014000000222146501E00F03DF80548046001E02E
:101410000120F2E70020F0E74C00002050000020FF
:101420004800002008B500BF0D48006840F080501B
:101430000B4908600846006800F08050009000BF2B
:1014400000BF00BF081D006840F48040091D08600F
:101450000846006800F48040009000BF00BF08BD4F
:101460004038024001460846002809DB00F01F030F
:1014700001229A4043099B0003F1E023C3F80021B5
:1014800000BF70472DE9F05F80460D4616460027E5
:1014900002F0B8FE074639462A46334601F00700F7
:1014A000C0F1070ABAF1040F02D94FF0040A01E0B3
:1014B000C0F1070AD14600F1040ABAF1070F02D2BF
:1014C0004FF0000A01E0A0F1030AD4464FF0010AF0
:1014D0000AFA09FAAAF1010A0AEA020A0AFA0CFA55
:1014E0004FF0010B0BFA0CFBABF1010B0BEA030BFA
:1014F0004AEA0B042146404602F08CFEBDE8F09F0C
:1015000000BF00F00702064B19684FF6FF031940B1
:10151000044B0B4343EA0221014B196000BF7047A3
:101520000CED00E00000FA0538B5002400BF2048AB
:10153000006840F080501E4908600846006800F0CE
:101540008050009000BF00BF1A48006840F480300F
:1015500018490860FFF70AFE044607E0FFF706FE99
:10156000001BB0F57A7F01D9032038BD11484068CF
:1015700000F48030B0F5803FF0D10E48006840F4B0
:1015800000300C490860FFF7F1FD044607E0FFF763
:10159000EDFD001BB0F57A7F01D90320E5E7054892
:1015A000406800F40030B0F5003FF0D10020DCE7E7
:1015B00040380240007000400348006840F48070EA
:1015C0000149086070470000007000402DE9F843B1
:1015D0000446002600250027A846A946207800F0EA
:1015E000010088B100BFFE48006820F40000FC49FB
:1015F000086008460068616B0843F949086000BF4D
:10160000606B08B94FF00108206800F40020B0F5C5
:10161000002F13D1F2488430006820F44010E16BB1
:101620000843EF4984310860E06BB0F5801F01D1B9
:101630004FF00108E06B08B94FF00109206800F491
:101640008010B0F5801F13D1E5488430006820F485
:101650004000216C0843E24984310860206CB0F5F9
:10166000800F01D14FF00108206C08B94FF001093B
:10167000206800F08070B0F1807F01D14FF0010848
:10168000207800F02000202870D100BFD4483830E6
:10169000006840F08050D249383108600846006840
:1016A00000F08050009000BF00BFCE48006840F4BA
:1016B0008070CC490860FFF759FD064607E0FFF748
:1016C00055FD801B642802D90320BDE8F883C54876
:1016D000006800F480700028F1D0C14868300068CC
:1016E00000F4407585B3208E00F44070A8422BD0E2
:1016F000BB486830006820F44075B948683000681D
:1017000040F48030B649683108600846006820F42B
:101710008030086008460560006800F0010098B15C
:10172000FFF724FD064608E0FFF720FD801B41F28D
:101730008831884201D90320C7E7A948683000688A
:10174000C0F340000028EFD000BF208E00F44070AE
:10175000B0F5407F0BD1A248006820F4F810A24AEF
:10176000216B114008439E49086006E010E09C4848
:10177000006820F4F8109A490860994868300068B9
:10178000218EC1F30B01084395496831086000BF01
:10179000207800F01000102810D100BF904884304D
:1017A000006820F080708E49843108600846006827
:1017B000A16B08438A498431086000BF208800F487
:1017C0008040B0F5804F09D185488830006820F40A
:1017D0004030616E0843824988310860208800F4F7
:1017E0000040B0F5004F09D17D488830006820F4F2
:1017F0004020A16E08437A4988310860206800F4CF
:101800008030B0F5803F09D175488830006820F4F9
:101810004010E16E0843724988310860206800F486
:101820000030B0F5003F09D16D488830006820F4E1
:101830004000216F08436A4988310860207800F031
:101840004000402809D166488830006820F0030035
:10185000616C0843624988310860207800F080009C
:10186000802809D15E488830006820F00C00A16C07
:1018700008435B4988310860208800F48070B0F527
:10188000807F09D156488830006820F03000E16C34
:101890000843534988310860208800F40070B0F58F
:1018A000007F09D14E488830006820F0C000216DCB
:1018B00008434B4988310860208800F48060B0F507
:1018C000806F09D146488830006820F44070616D0F
:1018D0000843434988310860208800F40060B0F56F
:1018E000006F09D13E488830006820F44060A16D47
:1018F00008433B4988310860208800F48050B0F5E7
:10190000805F09D136488830006820F44050E16D8E
:101910000843334988310860208800F40050B0F54E
:10192000005F09D12E488830006820F44040216EC5
:1019300008432B4988310860206800F48000B0F526
:10194000800F09D126488830006820F08060A16FA0
:101950000843234988310860206800F40010B0F57E
:10196000001F0FD11E488830006820F00060E16F32
:1019700008431B4988310860E06FB0F1006F01D166
:101980004FF00109207800F00800082801D14FF03D
:101990000109206800F48020B0F5802F09D110489B
:1019A0008830006820F04070616F08430C4988312E
:1019B0000860206800F40000B0F5000F0AD1084864
:1019C0008830006820F08050D4F880100843044923
:1019D00088310860206800F08060B0F1806F05E019
:1019E0000838024000700040FFFCFF0F08D1CC48CF
:1019F000006820F00050D4F884100843C8490860FB
:101A0000206800F00060B0F1006F0AD1C448001FE8
:101A1000006820F00070D4F888100843C049091FFE
:101A20000860206800F08050B0F1805F0AD1BC48A7
:101A3000001F006820F08060D4F88C100843B8497B
:101A4000091F0860B8F1010F03D02068B0F1007FD2
:101A50007ED1B3489038006820F08060B04990395A
:101A60000860FFF783FB064606E0FFF77FFB801B5D
:101A7000642801D9032028E6A94890380068C0F3FB
:101A8000C0600028F1D1207800F00100B8B1606B8F
:101A9000A8B9A3480C380068C0F30145A0480C3829
:101AA0000068C0F303676068800140EA054040EACF
:101AB0000761207A41EA007099490C390860206872
:101AC00000F40020B0F5002F03D1E06BB0F5801FCB
:101AD00009D0206800F48010B0F5801F24D1206C5C
:101AE000B0F5800F20D18E480C380068C0F3014556
:101AF0008B480C380068C0F302776068800140EAC8
:101B00000541207B41EA006040EA077084490C39B6
:101B100008608348001F006820F01F00616A491EAA
:101B200008437F49091F0860206800F08070B0F109
:101B3000807F17D17A480C380068C0F30365784875
:101B40000C380068C0F3027760688101208A00E0E9
:101B500036E041EA004040EA056040EA077070491B
:101B60000C390860206800F00070B0F1007F0DD1E2
:101B700060688101208A41EA0041207B41EA0061DE
:101B8000207A41EA007066490C3908606448903850
:101B9000006840F08060624990390860FFF7E6FA1B
:101BA000064606E0FFF7E2FA801B642801D903200D
:101BB0008BE55B4890380068C0F3C0600028F1D026
:101BC000B9F1010F7ED156489038006820F080505E
:101BD000534990390860FFF7C9FA064606E0FFF757
:101BE000C5FA801B642801D903206EE54C48903863
:101BF0000068C0F340700028F1D1206800F4002094
:101C0000B0F5002F01D1E06B38B1206800F48010EE
:101C1000B0F5801F22D1206C00BB41480838006815
:101C2000C0F301453E4808380068C0F30277606998
:101C3000800140EA0541207E41EA006040EA0770E9
:101C4000374908390860081D006820F4F851A06A77
:101C5000401E41EA00203249091F0860206800F454
:101C60000010B0F5001F19D1E06FB0F1006F15D171
:101C70002B4808380068C0F3036529480838006815
:101C8000C0F3027760698101208C41EA004040EA9C
:101C9000056040EA0770224908390860207800F0A2
:101CA0000800082820D11E4808380068C0F30365E2
:101CB0001B4808380068C0F301476069800140EAAA
:101CC000074000E02AE040EA0561207F41EA007019
:101CD000134908390860081D006820F44030E16AA3
:101CE00008430F49091F08600D489038006840F00C
:101CF00080500B4990390860FFF738FA064606E035
:101D0000FFF734FA801B642801D90320DDE404487E
:101D100090380068C0F340700028F1D00020D4E46F
:101D20009038024070B504460D4600260CB90120DB
:101D300070BD5C48006800F00F00A8420ED2594800
:101D4000006820F00F0028435649086008460068E4
:101D500000F00F00A84201D00120E9E7207800F050
:101D6000020002281DD1207800F00400042805D1CB
:101D70004D48006840F4E0504B490860207800F07E
:101D80000800082805D14848006840F460404649EA
:101D900008604548006820F0F000A1680843424907
:101DA0000860207800F0010090B36068012807D136
:101DB0003D4808380068C0F34040A0B90120B7E7AB
:101DC0006068022807D1384808380068C0F34060CE
:101DD00048B90120ACE7344808380068C0F3400037
:101DE00008B90120A4E73048006820F003006168CA
:101DF00008432D490860FFF7B9F9064609E0FFF7E7
:101E0000B5F9801B41F28831884202D903208FE75F
:101E100007E02548006800F00C006168B0EB810F16
:101E2000EDD12048006800F00F00A8420ED91D48EF
:101E3000006820F00F0028431A490860084600682F
:101E400000F00F00A84201D0012071E7207800F0D7
:101E50000400042807D11448006820F4E050E16829
:101E6000084311490860207800F00800082808D1CC
:101E70000D48006820F46040216940EAC1000A4929
:101E8000086000F03DF808490968C1F30311074AEA
:101E9000515CC840064908600020FFF79DFA002009
:101EA00046E70000003C024008380240F8430008C2
:101EB00050000020014800687047000050000020DA
:101EC00000B5FFF7F7FF04490968C1F38221034A0F
:101ED000515CC84000BD00000838024008440008BA
:101EE00000B5FFF7E7FF04490968C1F34231034A2F
:101EF000515CC84000BD000008380240084400089A
:101F00002DE9F047002400250026A1462548006859
:101F100000F00C0020B1042805D008283AD105E0D3
:101F2000DFF8849039E0DFF8849036E01D48001F28
:101F3000006800F03F041B48001F006800F48000A8
:101F400078B11A481749091F0968C1F38811A0FB25
:101F500001700146224600233846FEF769F905461E
:101F60000EE011480F49091F0968C1F38811A0FB51
:101F700001700146224600233846FEF759F905460E
:101F80000848001F0068C0F30140401C4600B5FB34
:101F9000F6F902E0DFF8109000BF00BF4846BDE848
:101FA000F0870000083802400024F40040787D01EA
:101FB000F8B5044600260CB90120F8BD207800F0E1
:101FC0000100002871D0F848006800F00C000428D7
:101FD0000DD0F548006800F00C00082813D1F24835
:101FE000001F006800F48000B0F5800F0BD1EE48B0
:101FF00008380068C0F34040002869D060680028B5
:1020000066D10120D9E700BF6068B0F5803F08D1F4
:10201000E5480838006840F48030E3490839086032
:102020002EE0606868B9E0480838006820F4803025
:10203000DD49083908600846006820F480200860FF
:102040001EE06068B0F5A02F0DD1D74808380068B1
:1020500040F48020D449083908600846006840F4FC
:10206000803008600CE0D0480838006820F48030E8
:10207000CD49083908600846006820F480200860CF
:1020800000BF606890B1FFF771F8054606E0FFF702
:102090006DF8401B642801D903208EE7C248083838
:1020A0000068C0F340400028F1D011E0FFF75EF86F
:1020B000054606E0FFF75AF8401B642801D90320C3
:1020C0007BE7B94808380068C0F340400028F1D1E8
:1020D000207800F00200022869D1B348006800F0BF
:1020E0000C0058B1B048006800F00C0008281CD162
:1020F000AD48001F006800F48000B0B9AA48083855
:102100000068C0F3400020B1E068012801D0012040
:1021100053E7A5480838006820F0F800216940EA34
:10212000C100A1490839086041E0E06828B39E4831
:102130000838006840F001009B4908390860FFF743
:1021400015F8054606E0FFF711F8401B022801D9F3
:10215000032032E7944808380068C0F340000028A4
:10216000F1D091480838006820F0F800216940EA71
:10217000C1008D490839086019E08B4808380068AB
:1021800020F00100884908390860FEF7EFFF054696
:1021900006E0FEF7EBFF401B022801D903200CE705
:1021A000814808380068C0F340000028F1D1207849
:1021B00000F00800082836D16069D0B17A486C3048
:1021C000006840F0010078496C310860FEF7CEFFEE
:1021D000054606E0FEF7CAFF401B022801D903208E
:1021E000EBE671486C300068C0F340000028F1D085
:1021F00019E06D486C30006820F001006A496C31CC
:102200000860FEF7B3FF054606E0FEF7AFFF401B90
:10221000022801D90320D0E663486C300068C0F37F
:1022200040000028F1D1207800F00400042874D187
:102230005D483830006800F0805080B900BF5A48CF
:102240003830006840F080505749383108600846FF
:10225000006800F08050009000BF00BF0126534886
:10226000006800F48070B0B95048006840F4807095
:102270004E490860FEF77AFF054606E0FEF776FF56
:10228000401B642801D9032097E64848006800F401
:1022900080700028F2D000BFA068012808D1424811
:1022A0006830006840F001003F49683108602DE067
:1022B000A06868B93C486830006820F001003A49DD
:1022C000683108600846006820F0040008601DE0DE
:1022D000A06805280DD134486830006840F004003B
:1022E0003149683108600846006840F00100086024
:1022F0000CE02D486830006820F001002A49683160
:1023000008600846006820F00400086000BFA0686C
:10231000A8B1FEF72BFF054609E02EE0FEF726FFE9
:10232000401B41F28831884201D9032045E61E480E
:1023300068300068C0F340000028EFD013E0FEF7DB
:1023400015FF054608E0FEF711FF401B41F28831FA
:10235000884201D9032030E6134868300068C0F392
:1023600040000028EFD1012E07D10F483830006817
:1023700020F080500C4938310860A069F0B30A4859
:10238000006800F00C00082868D0A06902284DD130
:1023900005480838006820F0807003490839086053
:1023A000FEF7E4FE05460AE00838024000700040EF
:1023B000FEF7DCFE401B022801D90320FDE5294879
:1023C0000068C0F340600028F2D1D4E90701084357
:1023D000616A40EA81110122A06AC2EB500041EA21
:1023E00000412C20005D41EA00613020005D41EA9F
:1023F00000701C49091D0860081F00E030E00068FB
:1024000040F08070091F0860FEF7B0FE054606E048
:10241000FEF7ACFE401B022801D90320CDE5114890
:102420000068C0F340600028F2D019E00D48006851
:1024300020F080700B490860FEF798FE054606E024
:10244000FEF794FE401B022801D90320B5E505489C
:102450000068C0F340600028F2D101E00120ACE543
:102460000020AAE50038024010B504460CB901204E
:1024700010BD607920B900202071204600F00EF8D0
:10248000022060712068006840F004002168086044
:10249000012060710020A06000BFE9E708B5094A8B
:1024A000016891420DD100BF0749096841F0400120
:1024B000054A11601146096801F04001009100BF12
:1024C00000BF08BD000806503438024070B504460D
:1024D0000CB9012070BD606A00B900BF0021A16283
:1024E00094F85D0028B9002084F85C00204600F0D4
:1024F00053F8022084F85D002068006820F0400056
:1025000021680860E068B0F5E06F01D9002501E0BE
:102510004FF48055E068B0F5706F05D0E068B0F515
:10252000E06F01D00021A162206B40B9E068B0F5F6
:10253000E06F02D90221216301E001212163D4E986
:10254000010108432169084361690843218B01F4B3
:1025500000710843E1690843216A0843A16A0843FE
:10256000216808600421A06901EA1040616A0843FB
:10257000616B0843E168084328432168486020688C
:10258000C06920F400602168C86100202066012035
:1025900084F85D0000209DE710B586B00446142144
:1025A00001A8FDF77DFE1949206888422CD100BFA3
:1025B0001748006840F48010154908600846006814
:1025C00000F48010009000BF00BF00BF1048143816
:1025D000006840F020000E49143908600846006881
:1025E00000F02000009000BF00BF4FF46070019029
:1025F0000220029000200390032004900520059003
:1026000001A90448FEF7A0FC06B010BD005001402F
:10261000443802400014024070B504462546681E46
:10262000B0F1807F01D301200FE0681E4FF0E02160
:1026300048610F214FF0FF3001F0ECFD00204FF01A
:10264000E021886107200861002070BD7047704755
:102650007047000010B50346002200BF93F83C000D
:10266000012801D1022010BD012083F83C0000BFE9
:1026700022F0FF00CC6840EA040222F440708C682B
:1026800040EA040222F480604C6840EA040222F42A
:1026900000600C6840EA040222F480500C6940EAB1
:1026A000040222F400504C6940EA040222F4804003
:1026B0008C6A40EA040222F470200C8B40EA044247
:1026C0000F4C1868A04203D00E4C1868A0420ED1DF
:1026D00022F470008C8C40EA045222F08070CC69A5
:1026E00040EA040222F000700C6A40EA0402186812
:1026F000426400BF002083F83C0000BF00BFB2E787
:10270000000001400004014030B502460B4600BF06
:1027100092F83C00012801D1022030BD012082F84E
:102720003C0000BF022082F83D001068416810683C
:102730008468114D1068A84203D0104D1068A8425B
:1027400003D121F470015868014321F07001186829
:10275000014324F0800498680443106841601068C5
:102760008460012082F83D0000BF002082F83C0018
:1027700000BF00BFD1E7000000000140000401409D
:1027800010B504460CB9012010BD94F83D0028B9DD
:10279000002084F83C00204600F00CF8022084F869
:1027A0003D00211D206801F045F8012084F83D001E
:1027B0000020E9E738B504462068B0F1804F0DD11C
:1027C00000BF1448006840F0010012490860084644
:1027D000006800F00100009000BF19E00E49206879
:1027E000884215D100BF0B48006840F0020009493B
:1027F00008600846006800F00200009000BF00BFBB
:10280000002201211D20FEF73DFE1D20FEF72AFEBD
:1028100038BD00004038024000040040014602205C
:1028200081F83D0008688068094B00EA0302062A27
:1028300008D0B2F5803F05D00868006840F001007C
:102840000B681860012081F83D00002070470000EF
:102850000700010001460868C06840F001000B68ED
:10286000D86008688068084B00EA0302062A08D08E
:10287000B2F5803F05D00868006840F001000B68A1
:102880001860002070470000070001002DE9F041AA
:1028900004460D4600BF94F83C00012802D10220F6
:1028A000BDE8F081012084F83C0000BF022084F8DC
:1028B0003D00206886683748064026F47F46206839
:1028C00086602868502833D00CDC202850D004DCE7
:1028D00000284BD0102851D149E0302849D0402859
:1028E0004CD139E060282DD0702807D0B0F5805F3A
:1028F00003D0B0F5005F41D10DE040E0D5E902130F
:102900006A68206801F063F82068866846F07706F8
:102910002068866033E0D5E902136A68206801F018
:1029200056F82068806840F480402168886026E07E
:10293000EA686968206801F095F95021206801F083
:1029400051F81CE0EA686968206801F09EF960218E
:10295000206801F047F812E0EA686968206801F031
:1029600081F94021206801F03DF808E000BF00BF78
:1029700000BF2968206801F035F800E000BF00BF03
:10298000012084F83D0000BF002084F83C0000BF17
:1029900000BF85E788FFFEFF7047704710B504460B
:1029A00020680069C0F34000D8B12068C068C0F357
:1029B0004000B0B16FF0020021680861012020776B
:1029C0002068806900F0030018B12046FFF7E5FF9A
:1029D00005E0204600F0ECF8204600F0FFF900206A
:1029E000207720680069C0F38000D8B12068C068F3
:1029F000C0F38000B0B16FF00400216808610220CC
:102A000020772068806900F4407018B12046FFF7F5
:102A1000C4FF05E0204600F0CBF8204600F0DEF9C8
:102A20000020207720680069C0F3C000D8B120687A
:102A3000C068C0F3C000B0B16FF008002168086141
:102A4000042020772068C06900F0030018B12046F8
:102A5000FFF7A3FF05E0204600F0AAF8204600F0AB
:102A6000BDF90020207720680069C0F30010D8B1BC
:102A70002068C068C0F30010B0B16FF0100021688A
:102A80000861082020772068C06900F4407018B100
:102A90002046FFF782FF05E0204600F089F8204637
:102AA00000F09CF9002020772068006900F0010008
:102AB00058B12068C06800F0010030B16FF001002B
:102AC00021680861204600F04FFA20680069C0F3D1
:102AD000C01058B12068C068C0F3C01030B16FF0AA
:102AE0008000216808612046FFF7B1FD2068006979
:102AF000C0F3002058B12068C068C0F3C01030B1E6
:102B00006FF48070216808612046FFF79FFD206800
:102B10000069C0F3801058B12068C068C0F380100D
:102B200030B16FF0400021680861204600F01DFAC6
:102B300020680069C0F3401058B12068C068C0F335
:102B4000401030B16FF02000216808612046FFF787
:102B50007FFD10BD10B586B00446142101A8FDF715
:102B60009FFB1049206888421AD100BF0E480068B8
:102B700040F010000C4908600846006800F01000A2
:102B8000009000BF00BF4815019002200290002075
:102B9000039004900120059001A90448FEF7D4F9A0
:102BA00006B010BD00000140303802400010024065
:102BB000704770B504460D46164600BF94F83C00B9
:102BC000012801D1022070BD012084F83C0000BF23
:102BD000022084F83D000C2E51D005DC4EB1042EAD
:102BE0001ED0082E7AD133E0102E60D0142EF9D1E9
:102BF00075E02946206800F0FFFE2068806940F0FB
:102C00000800216888612068806920F0040021683C
:102C1000886120688069296908432168886177E0B4
:102C20002946206800F022FF2068806940F4006097
:102C3000216888612068806920F48060216888614B
:102C400020688069296940EA0120216888615FE085
:102C50002946206800F04AFF2068C06940F008005B
:102C60002168C8612068C06920F004002168C8613B
:102C70002068C069296908432168C86148E029467D
:102C8000206800F071FF2068C06940F4006021688E
:102C9000C8612068C06920F480602168C86120682C
:102CA000C069296940EA01202168C86130E02946ED
:102CB000206800F085FF2068406D40F00800216822
:102CC00048652068406D20F0040021684865206850
:102CD000406D296908432168486519E017E02946D5
:102CE000206800F095FF2068406D40F40060216886
:102CF00048652068406D20F4806021684865206840
:102D0000406D296940EA01202168486500E000BF64
:102D100000BF012084F83D0000BF002084F83C0083
:102D200000BF00BF4FE710B504460CB9012010BD2D
:102D300094F83D0028B9002084F83C00204600F0BB
:102D40000DF8022084F83D00211D206800F072FD7E
:102D5000012084F83D000020E9E7000038B5044672
:102D60001A49206888422FD100BF1948006840F0F6
:102D70000100174908600846006800F00100009053
:102D800000BF00BF1348144908604FF0406048601E
:102D90004021114881600021C1604FF480610161D0
:102DA00049004161890081614911C16100210162CD
:102DB0004162FEF703F808B1FDF706FC00BF0649C3
:102DC00061620846846300BF38BD00000000014016
:102DD00044380240286402404C1600207047704777
:102DE0002DE9F04104460F461546984694F83D00FB
:102DF000022801D1BDE8F08194F83D00012807D1F7
:102E00001DB9B8F1000F00D0F4E7022084F83D00AE
:102E100037B1042F1FD0082F38D00C2F6CD150E0C1
:102E20004B49606AC1634B49606A01644A49606A00
:102E3000C164216801F1340243462946606AFEF705
:102E400033F808B10120D5E72068C06840F400706D
:102E50002168C86051E03E49A06AC1633D49A06A4B
:102E600001643D49A06AC164216801F1380243460A
:102E70002946A06AFEF718F808B10120BAE72068D1
:102E8000C06840F480602168C86036E03049E06A7C
:102E9000C1633049E06A01642F49E06AC164216876
:102EA00001F13C0243462946E06AFDF7FDFF08B107
:102EB00001209FE72068C06840F400602168C86076
:102EC0001BE02349206BC1632249206B0164224926
:102ED000206BC164216801F1400243462946206B02
:102EE000FDF7E2FF08B1012084E72068C06840F4E4
:102EF00080502168C86000E000BF00BF0122394651
:102F0000206800F003FD15492068884203D0144969
:102F10002068884201D1012000E0002028B120680B
:102F2000406C40F4004021684864206880680D4986
:102F300000EA0106062E08D0B6F5803F05D02068CD
:102F4000006840F0010021680860002052E700009E
:102F50002F39000875390008BB390008000001400E
:102F600000040140070001007047704710B5044697
:102F70000CB9012010BDA06900B100E000BF606F76
:102F800028B9002084F87000204600F029F8242099
:102F900060672068006820F0010021680860204612
:102FA00000F028FF012800D1E4E7606A10B1204654
:102FB00000F07FFE2068406820F49040216848605F
:102FC0002068806820F02A002168886020680068F6
:102FD00040F0010021680860204600F0E6FEC9E7E5
:102FE00010B586B00446142101A8FDF759F9194916
:102FF000206888422CD100BF1748006840F4802028
:10300000154908600846006800F48020009000BF61
:1030100000BF00BF10481038006840F008000E499B
:10302000103908600846006800F00800009000BFF2
:1030300000BF4FF4407001900220029000200390E6
:10304000032004900720059001A90448FDF77CFFA8
:1030500006B010BD0048004040380240000C02405D
:1030600000BFFEE71FB50020009001900290039082
:103070001748184908604FF480304860002115480F
:1030800081600161816180F820104FF08051C16240
:103090004FF0306181620021C1600121C1610021D6
:1030A00080F8301001214161FDF726FC08B1FDF7E1
:1030B0008BFA0620009001200190002002906946C2
:1030C0000448FDF783FA08B1FDF77EFA1FBD000042
:1030D000002001402414002008B500BF0E480068FD
:1030E00040F480000C4908600846006800F4800045
:1030F000009000BF00BF002211463820FEF7C2F941
:103100003820FEF7AFF9002211463920FEF7BAF950
:103110003920FEF7A7F908BD3038024000B587B066
:10312000142102A8FDF7BCF800BF5E48006840F01B
:1031300010005C4908600846006800F0100001902B
:1031400000BF00BF00BF0846006840F004000860F0
:103150000846006800F00400019000BF00BF00BFF7
:103160000846006840F0200008600846006800F04B
:103170002000019000BF00BF00BF0846006840F07B
:10318000800008600846006800F08000019000BFE1
:1031900000BF00BF0846006840F001000860084614
:1031A000006800F00100019000BF00BF00BF0846AA
:1031B000006840F0020008600846006800F0020065
:1031C000019000BF00BF00BF0846006840F0080043
:1031D00008600846006800F00800019000BF00BFCA
:1031E00000BF0846006840F04000086008460068DC
:1031F00000F04000019000BF00BF00224FF4814169
:103200002948FDF7ADFF002240212848FDF7A8FF1F
:103210004DF20500029000200390049002A924487A
:10322000FDF792FE4FF403500290002003900490AB
:1032300002A92048FDF788FE48F201000290002014
:103240000390049002A91C48FDF77EFE4BF629402E
:10325000029000200390049002A91348FDF774FE29
:103260004FF48140029001200390002004900590CB
:1032700002A90D48FDF768FE40200290012003904E
:1032800000200490059002A90848FDF75DFE80200B
:10329000029000200390049002A90448FDF754FE18
:1032A00007B000BD30380240000402400018024060
:1032B00000100240000802400000024010B5124811
:1032C00012490860124848600021104881600121BD
:1032D000C1600021016141618161C1610162FDF74D
:1032E000B5FF08B1FDF770F900210848FDF744FF6C
:1032F00008B1FDF769F900210448FDF772FF08B134
:10330000FDF762F910BD000000540040CC1400200D
:103310006847402010B50548054908600846FFF792
:10332000A3F808B1FDF750F910BD000000080650E1
:103330001815002010B51148114908604FF482702B
:10334000486000210E4881604FF4E061C1600021B7
:10335000016141614FF4007181610021C16101622D
:10336000416281620721C162002101634163FFF76D
:10337000ADF808B1FDF728F910BD0000005001407C
:103380002815002000B595B00020129013901490DD
:103390001C210BA8FCF784FF2C216846FCF780FF5A
:1033A000264827490860022048600021244881609F
:1033B0005921C1600021016141618161FFF7B3FCC6
:1033C00008B1FDF701F9002012901390149012A992
:1033D0001B48FFF799F908B1FDF7F6F860200B904C
:1033E00000200C900D900E900F90109011900022E4
:1033F0000BA91348FFF7DDFB08B1FDF7E5F8002046
:10340000009001900290039004904FF400500590BA
:103410000020069007904FF000700890002009905F
:103420000A9069460648FFF715F908B1FDF7CCF890
:103430000348FFF78FFB15B000BD000000000140FE
:103440008C15002000B587B00020039004900590F3
:1034500006900090019002904FF08040144908605F
:1034600042F62F20486000211148816042F20F711E
:10347000C160002101618161FFF782F908B1FDF7A8
:10348000A3F84FF48050039003A90948FFF7FEF911
:1034900008B1FDF799F820200090002002906946BD
:1034A0000348FFF731F908B1FDF78EF807B000BD0A
:1034B000CC15002000B587B0002003900490059043
:1034C0000690009001900290144815490860D7209A
:1034D000486000211248816040F2E731C16000215C
:1034E00001618161FFF74CF908B1FDF76DF84FF408
:1034F0008050039003A90A48FFF7C8F908B1FDF707
:1035000063F800200090029069460548FFF7FCF838
:1035100008B1FDF759F807B000BD000000040040F5
:103520000C16002010B50D480D4908604FF4E1302D
:10353000486000210A488160C16001610C2141613D
:1035400000218161C161016200200549486208468D
:10355000FFF70CFD08B1FDF737F810BD004800403B
:10356000AC16002000BFFEE710B500200849087027
:1035700008490870E520084908700846027805489F
:1035800001780348007800F0E9FE00F067FE10BD06
:10359000400000204100002042000020704770479A
:1035A00010B50023234C236000BF00BF00BFBFF352
:1035B0004F8F00BF00BF00BF231F1868C0F34E31FC
:1035C00000BFC0F3C90200BF43F6E07303EA411332
:1035D0004FF0404404EA82742343174C236000BF39
:1035E00000BF131EA2F10102EED10B1EA1F10101D9
:1035F000E7D100BF00BF00BFBFF34F8F00BF00BFC8
:1036000000BF0C4B703B1B6843F48033094C703C8B
:10361000236000BF00BF00BFBFF34F8F00BF00BFDC
:1036200000BF00BF00BF00BFBFF36F8F00BF00BF70
:1036300000BF10BD84ED00E060EF00E000BF00BF00
:1036400000BFBFF34F8F00BF00BF00BF00BF00BF70
:1036500000BFBFF36F8F00BF00BF00BF0020144941
:10366000086000BF00BF00BFBFF34F8F00BF00BFA7
:1036700000BF00BF00BF00BFBFF36F8F00BF00BF20
:1036800000BF0C48006840F400300A49086000BFE1
:1036900000BF00BFBFF34F8F00BF00BF00BF00BF20
:1036A00000BF00BFBFF36F8F00BF00BF00BF7047F8
:1036B00050EF00E014ED00E0704710B5FDF768FE34
:1036C00010BD000000B5B7B034212AA8FCF7E8FD12
:1036D000142125A8FCF7E4FD902101A8FCF7E0FDEA
:1036E000FDF76AFF00BF2C48006840F080502A496F
:1036F00008600846006800F08050009000BF00BFDE
:1037000000BF2648006840F440402449086008464D
:10371000006800F44040009000BF00BF02202A90E3
:1037200001202D9010202E900220309000212AA8F8
:10373000C16108210162D821416202218162C16216
:10374000FEF736FC08B1FCF73FFFFDF7EDFE08B1D0
:10375000FCF73AFF0F2025900220269000202790AA
:103760004FF4A05028904FF480502990072125A8AD
:10377000FEF7D8FA08B1FCF727FF094801900020AE
:1037800014901A90209001A8FDF720FF08B1FCF7D3
:103790001BFF37B000BD0000403802400070004001
:1037A000004120001448006840F47000124908608D
:1037B0001248006840F001001049086000200F49DD
:1037C000083108600D4800680D4908400B49086041
:1037D0000C48091D0860081F006820F48020091F9C
:1037E0000860002005490C3108604FF00060024974
:1037F000803908607047000088ED00E00038024022
:10380000FFFFF6FE1030002410B50748FFF7C6F89A
:1038100006480068401C0549086005480068401CCF
:103820000349086010BD00000C16002004000020B1
:103830002800002010B50268294B98420ED0B0F144
:10384000804F0BD0274B984208D0274B984205D089
:10385000264B984202D0264B984203D122F07002A8
:103860004B681A431E4B984220D0B0F1804F1DD0B8
:103870001C4B98421AD01C4B984217D01B4B9842B5
:1038800014D01B4B984211D01A4B98420ED01A4BB1
:1038900098420BD0194B984208D0194B984205D04A
:1038A000184B984202D0184B984203D122F4407230
:1038B000CB681A4322F080034C6943EA0402026099
:1038C0008B68C3620B688362054B984202D0084B39
:1038D000984201D10B6903630123436110BD0000CD
:1038E000000001400004004000080040000C0040BF
:1038F00000040140004001400044014000480140F4
:1039000000180040001C00400020004030B501F0CD
:103910001F05012404FA05F3046A9C430462046A47
:1039200001F01F0502FA05F52C43046230BD70B5A5
:103930000546AC6B012084F83D00606AA84202D1C4
:103940000120207710E0A06AA84202D1022020774F
:103950000AE0E06AA84202D10420207704E0206B4C
:10396000A84201D1082020772046FFF737FA00202F
:10397000207770BD70B50546AC6B012084F83D0022
:10398000606AA84202D10120207710E0A06AA84214
:1039900002D1022020770AE0E06AA84202D1042086
:1039A000207704E0206BA84201D108202077204630
:1039B000FFF715FA0020207770BD70B50446A56B9F
:1039C000012085F83D002846FEF7E6FF70BD30B5C2
:1039D0000C46816821F47F4142EA032525432943AF
:1039E000816030BD0A46816821F0700142F0070312
:1039F000194381607047000030B5056A25F0010564
:103A00000562026A43688469154D2C4024F0030462
:103A10000D682C4322F002028D682A43114DA84202
:103A200000D103E0104DA84206D100BF22F00802E9
:103A3000CD682A4322F004020A4DA84202D00A4D62
:103A4000A84207D123F4807323F400734D692B43FC
:103A50008D692B43436084614D684563026230BDCC
:103A60008FFFFEFF000001400004014030B5056AF1
:103A700025F010050562026A43688469184D2C40E0
:103A800024F440740D6844EA052422F020028D6875
:103A900042EA0512134DA84200D103E0124DA8429C
:103AA00007D100BF22F08002CD6842EA051222F061
:103AB00040020C4DA84202D00B4DA84209D123F47C
:103AC000806323F400634D6943EA85038D6943EA0B
:103AD0008503436084614D688563026230BD0000E8
:103AE000FF8FFFFE000001400004014030B5056A71
:103AF00025F480750562026A4368C469174D2C403D
:103B000024F003040D682C4322F400728D6842EA0D
:103B10000522134DA84200D103E0124DA84207D15F
:103B200000BF22F40062CD6842EA052222F48062DE
:103B30000B4DA84202D00B4DA84209D123F480536B
:103B400023F400534D6943EA05138D6943EA0513D5
:103B50004360C4614D68C563026230BD8FFFFEFFE4
:103B6000000001400004014030B5056A25F480558D
:103B70000562036A4468C2690E4D2A4022F440720D
:103B80000D6842EA052223F400538D6843EA0533A9
:103B9000094DA84202D0094DA84204D124F4804422
:103BA0004D6944EA85144460C2614D68056403624E
:103BB00030BD0000FF8FFFFE000001400004014007
:103BC00030B5056A25F480350562026A4368446DA4
:103BD0000C4D2C400D682C4322F400320D8942EA32
:103BE0000542094DA84202D0084DA84204D123F451
:103BF00080334D6943EA0523436044654D6885651C
:103C0000026230BD8FFFFEFF000001400004014052
:103C100030B5056A25F480150562026A4368446D73
:103C20000D4D2C400D6844EA052422F400120D8944
:103C300042EA0552094DA84202D0094DA84204D1DA
:103C400023F480234D6943EA8523436044654D682E
:103C5000C565026230BD0000FF8FFFFE000001401D
:103C60000004014030B50B461446026A056A25F08F
:103C700001050562816921F0F00141EA041122F099
:103C80000A021A438161026230BD30B50B46144608
:103C9000056A25F0100505628169026A21F4704108
:103CA00041EA043122F0A00242EA03128161026279
:103CB00030BD90F8241001F0010139B10168496864
:103CC00021F40031826A11430268516090F8241097
:103CD00001F00201022907D10168496821F480310D
:103CE000C26A11430268516090F8241001F0040187
:103CF000042907D10168496821F48021026B11432E
:103D00000268516090F8241001F00801082907D1D9
:103D10000168496821F40041426B11430268516017
:103D200090F8241001F01001102907D1016889686A
:103D300021F48051826B11430268916090F8241045
:103D400001F02001202907D10168896821F4005180
:103D5000C26B11430268916090F8241001F0400199
:103D6000402913D10168496821F48011026C114384
:103D700002685160016CB1F5801F07D10168496884
:103D800021F4C001426C11430268516090F8241084
:103D900001F08001802907D10168496821F40021E0
:103DA000826C114302685160704738B504460020A8
:103DB000E067FDF7DBF905462068006800F00800C1
:103DC00008280CD16FF07E402B4600224FF40011E2
:103DD0000090204600F0E0F908B1032038BD202013
:103DE0006067A06700BF002084F8700000BF00BFBC
:103DF000F4E700002DE9F04704460026B1462169AA
:103E0000A068084361690843E16940EA0107206846
:103E10000068D54908403843216808602068406838
:103E200020F44050E168084321684860A769206A8F
:103E300007432068806820F4306038432168886038
:103E400000BFCA492068884216D1C948006800F0FE
:103E5000030030B1012808D0022804D0032808D17B
:103E600005E0012507E0022505E0042503E008251B
:103E700001E0102500BFC9E0BE492068884216D184
:103E8000BB48006800F00C0030B1042808D00828B6
:103E900004D00C2808D105E0002507E0022505E044
:103EA000042503E0082501E0102500BFAEE0B2497B
:103EB0002068884216D1AE48006800F0300030B16A
:103EC000102808D0202804D0302808D105E000258B
:103ED00007E0022505E0042503E0082501E01025A0
:103EE00000BF93E0A5492068884216D1A048006829
:103EF00000F0C00030B1402808D0802804D0C0288D
:103F000008D105E0002507E0022505E0042503E0CF
:103F1000082501E0102500BF78E099492068884213
:103F200019D19348006800F4407048B1B0F5807F23
:103F30000AD0B0F5007F05D0B0F5407F08D105E08C
:103F4000002507E0022505E0042503E0082501E03F
:103F5000102500BF5AE08B492068884219D1844857
:103F6000006800F4406048B1B0F5806F0AD0B0F549
:103F7000006F05D0B0F5406F08D105E0012507E0DE
:103F8000022505E0042503E0082501E0102500BF17
:103F90003CE07D492068884219D17548006800F4EA
:103FA000405048B1B0F5805F0AD0B0F5005F05D051
:103FB000B0F5405F08D105E0002507E0022505E0E7
:103FC000042503E0082501E0102500BF1EE06F492D
:103FD0002068884219D16648006800F4404048B122
:103FE000B0F5804F0AD0B0F5004F05D0B0F5404F86
:103FF00008D105E0002507E0022505E0042503E0DF
:10400000082501E0102500BF00E0102500BFE06991
:10401000B0F5004F57D1042D28D005DC4DB1012D4E
:1040200011D0022D36D118E0082D29D0102D31D114
:1040300031E0FDF745FF4000616800EB5100B0FB47
:10404000F1F086B22AE0FDF74BFF4000616800EB1B
:104050005100B0FBF1F086B220E04D49606801EB01
:1040600050006168B0FBF1F086B217E0FDF748FF41
:104070004000616800EB5100B0FBF1F086B20DE04A
:104080004FF48031606801EB50006168B0FBF1F0E3
:1040900086B203E000BF4FF0010900BF00BF102E41
:1040A0000ED3B6F5803F0BD24FF6F07006EA00084B
:1040B000C6F3420048EA00082068C0F80C804DE0D2
:1040C0004FF001094AE0042D26D005DC4DB1012D49
:1040D00010D0022D33D116E0082D26D0102D2ED170
:1040E0002EE0FDF7EDFE616800EB5100B0FBF1F052
:1040F00086B228E0FDF7F4FE616800EB5100B0FBEA
:10410000F1F086B21FE02349606801EB500061685E
:10411000B0FBF1F086B216E0FDF7F2FE616800EB4D
:104120005100B0FBF1F086B20DE04FF40041606841
:1041300001EB50006168B0FBF1F086B203E000BF14
:104140004FF0010900BF00BF102E05D3B6F5803F28
:1041500002D22068C66001E04FF00109002020660D
:1041600060664846BDE8F087F369FFEF0010014044
:10417000903802400044004000480040004C00409D
:10418000005000400014014000780040007C0040D6
:104190000048E8010024F4002DE9F04104460D46F2
:1041A00017469846069E1FE0701CE8B1FCF7DEFF3C
:1041B000A0EB0800B04200D8B6B92068006820F42F
:1041C000D070216808602068806820F001002168B4
:1041D000886020206067A06700BF002084F870001E
:1041E00000BF0320BDE8F0812068C0692840A842D4
:1041F00001D1012000E00020B842D5D00020F1E735
:1042000000BFFEE702480068C0F3022070470000CC
:104210000CED00E010B5002804DB0A07130E054A78
:10422000135406E00A07140E034A00F00F031B1F85
:10423000D45410BD00E400E018ED00E002E008C82E
:10424000121F08C1002AFAD170477047002001E010
:1042500001C1121F002AFBD17047000010B50024D5
:1042600000BF04E0204600F017F8601C84B25A2C0E
:10427000F8DB04EB44004FF6FF7101EAC00405E0EF
:104280000020044921F81400601C84B2902CF7DB54
:1042900010BD00006201002010B502465A2A48D223
:1042A000002142E002EB4200401C234B185CC1F1AC
:1042B00007040123A340184008B13C2000E01E2061
:1042C00002EB420301EBC3031C4C24F8130002EB86
:1042D0004200194B185CC1F107040123A3401840A8
:1042E00008B13C2000E01E2002EB4203082404EB4E
:1042F000C3030B44114C24F8130002EB4200801C52
:104300000D4B185CC1F107040123A340184008B10C
:104310003C2000E01E2002EB4203102404EBC30308
:104320000B44064C24F81300491C0829BAD3012079
:1043300010BD0020FCE700005400002062010020B6
:1043400010B54FF41063034A00210348FEF748FDFF
:1043500010BD0000620100208C15002030B503461E
:104360000C4600210CE001EB4100074D2B5401EB02
:104370004100401C2C5401EB4100801C2A54491C74
:104380005A29F0D3012030BD54000020FFF756F920
:10439000FFF706F9FDF708F8FFF794F9FEF7BEFE00
:1043A000FEF79AFEFEF75EFEFEF7ECFFFFF74AF817
:1043B000FFF7B8F8FEF782FFFEF7ACFFFEF7BAFF93
:1043C000FFF778F8FFF7BCFF0648FEF727FA064824
:1043D000FCF734FB0548FEF73DFA01E0FFF7C4F8AF
:1043E000FCE70000CC150020241400200C1600204F
:1043F0000006101600061016000000000000000065
:10440000010203040607080900000000010203047A
:104410003044000800000020540000003C42000826
:104420008444000854000020DC1A00004C420008BC
:10443000000000000000000000000000000000007C
:10444000000000000000000000000000000000006C
:10445000000000000000000000000000000000005C
:10446000000000005000000028000000460000008E
:10447000000000000000000010000000010000002B
:044480000024F40020
:04000005080001F9F5
:00000001FF
